:100000000C9452010C947A010C947A010C947A01AC
:100010000C947A010C947A010C947A010C947A0174
:100020000C947A010C947A010C947A010C947A0164
:100030000C947A010C947A010C947A010C947A0154
:100040000C94DB050C947A010C94A9050C9483059F
:100050000C947A010C947A010C947A010C947A0134
:100060000C947A010C947A01000000000000005FFB
:1000700000000007000700147F147F14242A7F2A41
:10008000122313086462364955225000050300000C
:10009000001C2241000041221C0014083E081408E4
:1000A000083E0808005030000008080808080060F2
:1000B00060000020100804023E5149453E00427F86
:1000C000400042615149462141454B311814127F8D
:1000D0001027454545393C4A494930017109050316
:1000E0003649494936064949291E0036360000007E
:1000F0005636000008142241001414141414004150
:100100002214080201510906324979413E7E11113B
:10011000117E7F494949363E414141227F4141227A
:100120001C7F494949417F090909013E4149497AF2
:100130007F0808087F00417F41002040413F017F48
:10014000081422417F404040407F020C027F7F0420
:1001500008107F3E4141413E7F090909063E415159
:10016000215E7F09192946464949493101017F012C
:10017000013F4040403F1F2040201F3F4038403F4C
:100180006314081463070870080761514945430068
:100190007F41410002040810200041417F00040219
:1001A0000102044040404040000102040020545439
:1001B00054787F48444438384444442038444448C0
:1001C0007F3854545418087E0901020C5252523E92
:1001D0007F0804047800447D40002040443D007FB7
:1001E0001028440000417F40007C041804787C08FB
:1001F00004047838444444387C1414140808141453
:10020000187C7C080404084854545420043F44409B
:10021000203C4040207C1C2040201C3C4030403C86
:1002200044281028440C5050503C4464544C440022
:100230000836410000007F00000041360800100829
:100240000810080000000000000000002400270043
:100250002A0000000000250028002B0000000000FC
:1002600023002600290004040404040404040202F8
:100270000202020203030303030301020408102025
:100280004080010204081020010204081020000030
:100290000008000201000003040700000000000045
:1002A0000000250611241FBECFEFD8E0DEBFCDBF72
:1002B00011E0A0E0B1E0ECE2F6E102C005900D92A1
:1002C000A035B107D9F722E0A0E5B1E001C01D9249
:1002D000A934B207E1F711E0C2E5D1E004C02197EB
:1002E000FE010E94090BC135D107C9F70E946506BE
:1002F0000C94140B0C940000CF92DF92EF92FF92BB
:100300000F931F93CF93DF936C017A018B01C0E0B1
:10031000D0E0CE15DF0581F0D8016D918D01D601B9
:10032000ED91FC910190F081E02DC6010995892B9A
:1003300011F02196EECF7E01C701DF91CF911F9181
:100340000F91FF90EF90DF90CF900895FC01538DB7
:10035000448D252F30E0842F90E0821B930B54179F
:1003600010F0CF96089501970895FC01918D828D2C
:10037000981761F0828DDF01A80FB11D5D968C91F9
:10038000928D9F5F9F73928F90E008958FEF9FEF04
:100390000895FC01918D828D981731F0828DE80FC0
:1003A000F11D858D90E008958FEF9FEF0895FC017A
:1003B000918D228D892F90E0805C9F4F821B910947
:1003C0008F73992708958DE591E00E94D70121E070
:1003D000892B09F420E0822F0895FC01848DDF0130
:1003E000A80FB11DA35ABF4F2C91848D90E00196A8
:1003F0008F739927848FA689B7892C93A089B18997
:100400008C91837080648C93938D848D981306C037
:100410000288F389E02D80818F7D80830895EF929B
:10042000FF920F931F93CF93DF93EC0181E0888FAE
:100430009B8D8C8D981305C0E889F989808185FD95
:1004400026C0F62E0B8D10E00F5F1F4F0F73112784
:10045000E02E8C8DE8120CC00FB607FCFACFE889AD
:10046000F989808185FFF5CFCE010E94ED01F1CFA2
:100470008B8DFE01E80FF11DE35AFF4FF0829FB70D
:10048000F8940B8FEA89FB89808180620AC09FB74C
:10049000F894EE89FF896083E889F9898081837007
:1004A000806480839FBF81E090E0DF91CF911F91B6
:1004B0000F91FF90EF900895CF93DF93EC01888D1B
:1004C0008823C9F0EA89FB89808185FD05C0A88958
:1004D000B9898C9186FD0FC00FB607FCF5CF8081DE
:1004E00085FFF2CFA889B9898C9185FFEDCFCE0128
:1004F0000E94ED01E7CFDF91CF91089580E090E079
:10050000892B29F00E94E30181110C9400000895C9
:10051000833081F028F4813099F08230A1F0089581
:100520008730A9F08830B9F08430D1F48091800010
:100530008F7D03C0809180008F7780938000089525
:1005400084B58F7702C084B58F7D84BD0895809176
:10055000B0008F7703C08091B0008F7D8093B00092
:1005600008951F93CF93DF93282F30E0F901E257CE
:10057000FD4F8491F901E658FD4FD491F901EA59F4
:10058000FD4FC491CC23C1F0162F81110E94880227
:10059000EC2FF0E0EE0FFF1FEE5AFD4FA591B49146
:1005A0009FB7F894111104C08C91D095D82302C044
:1005B000EC91DE2BDC939FBFDF91CF911F910895CB
:1005C000CF93DF9390E0FC01E658FD4F2491FC01AE
:1005D000EA59FD4F8491882361F190E0880F991FBB
:1005E000FC01E85BFD4FC591D491FC01EE5AFD4F33
:1005F000A591B491611109C09FB7F89488812095A5
:1006000082238883EC912E230BC0623061F49FB764
:10061000F8948881322F309583238883EC912E2B98
:100620002C939FBF06C08FB7F894E8812E2B2883A8
:100630008FBFDF91CF9108953FB7F8948091550116
:1006400090915601A0915701B091580126B5A89BF1
:1006500005C02F3F19F00196A11DB11D3FBFBA2F54
:10066000A92F982F8827820F911DA11DB11DBC01B4
:10067000CD0142E0660F771F881F991F4A95D1F779
:1006800008958F929F92AF92BF92CF92DF92EF9296
:10069000FF926B017C010E941C034B015C01C114A1
:1006A000D104E104F104F1F00E941C03DC01CB0150
:1006B00088199909AA09BB09883E9340A105B1058B
:1006C00070F321E0C21AD108E108F10888EE880E23
:1006D00083E0981EA11CB11CC114D104E104F104F3
:1006E00019F7DDCFFF90EF90DF90CF90BF90AF90E4
:1006F0009F908F900895089580E090E00895EF9284
:10070000FF920F931F93CF93DF93EC01042F8E8101
:100710000E94B10260E088850E94B102FC80ED80F9
:1007200018E0602F661F6627661F8E2D0E94B1029B
:10073000000F61E08F2D0E94B10260E08F2D0E94BA
:10074000B102115071F761E08885DF91CF911F915F
:100750000F91FF90EF900C94B102CF93DF93CAEF0B
:10076000D1E01C86282F30E09B8569E3969F612DA0
:100770001124669570E06F5F7F4FC9010E94BF0A28
:100780008D8740E860E0CE010E947F034D85406484
:1007900060E0CE01DF91CF910C947F030E940F0B9C
:1007A0006115710579F0FB0101900020E9F731979F
:1007B000AF01461B570BDC01ED91FC910280F381E8
:1007C000E02D099480E090E008958F929F92AF927F
:1007D000BF92EF92FF920F931F93CF93DF93CDB70A
:1007E000DEB7A1970FB6F894DEBF0FBECDBF7C0178
:1007F000FA01CB0119A2223008F42AE08E010F5D24
:100800001F4F822E912CA12CB12CBF01A501940168
:100810000E94D30AF901CA01015011096A3014F487
:10082000605D01C0695CD8016C93232B242B252BC0
:1008300061F7B801C7010E94D003A1960FB6F894E2
:10084000DEBF0FBECDBFDF91CF911F910F91FF9003
:10085000EF90BF90AF909F908F900895DF92EF92AE
:10086000FF920F931F93CF93DF9300D000D01F927E
:10087000CDB7DEB767FD5BC07C01862F90E06032AC
:1008800060F0809725E0289FB001299F700D11240A
:1008900068597F4F45E050E00EC0880F991FF7015F
:1008A000E80FF91F078510890115110559F445E076
:1008B00050E068E670E0CE0101960E9473088E0158
:1008C0000F5F1F4F85E0D82EF7018685F801408124
:1008D0008111409561E0C7010E947F03DA940F5FA8
:1008E0001F4FD110F1CFF7014685419561E0C70157
:1008F0000E947F03F701848590E00696628570E090
:100900000E94BF0A8487811115C0258530E02F5FC2
:100910003F4F938569E3969F612D1124669570E0A2
:100920006F5F7F4FC9010E94BF0A858703C080E0C7
:1009300090E002C081E090E00F900F900F900F9038
:100940000F90DF91CF911F910F91FF90EF90DF906B
:1009500008958F929F92AF92BF92CF92DF92EF92C3
:10096000FF920F931F93CF93DF936B017C01142FA2
:100970009B01AC010E94BA0A882319F06EE171E074
:1009800027C046015701E894B7F82FEF3FEF4FE734
:100990005FE7C501B4010E94BA0A81110DC02FEFB3
:1009A0003FEF4FE75FE7C501B4010E94E908181661
:1009B0001CF462E271E00CC02FEF3FEF4FE75FE401
:1009C000C701B6010E94480A181694F466E271E065
:1009D0008AEF91E0DF91CF911F910F91FF90EF90FF
:1009E000DF90CF90BF90AF909F908F900C94D003EA
:1009F0002FEF3FEF4FE75FECC701B6010E94E90818
:100A000087FDE4CF20E030E0A901C701B6010E94D4
:100A1000E90887FF0BC06DE28AEF91E00E942E0487
:100A2000EC01F7FAF094F7F8F09402C0C0E0D0E0DF
:100A300000E060E070E080E09FE3101741F020E00C
:100A400030E040E251E40E94EE080F5FF6CFA701CC
:100A500096010E947D086B017C010E9467094B0191
:100A60005C012AE0AB01BC018AEF91E00E94E50342
:100A7000C80FD91F1123C9F1C501B4010E949609FD
:100A80009B01AC01C701B6010E947C086B017C018F
:100A90006EE28AEF91E00E942E04C80FD91F20E079
:100AA00030E040E251E4C701B6010E944D0A4B011B
:100AB0005C010E9467096B01E12CF12C2AE0B7016F
:100AC000A6018AEF91E00E94E503C80FD91FC70174
:100AD000B6010E9496099B01AC01C501B4010E94B8
:100AE0007C086B017C011150D1F6CE01DF91CF91D2
:100AF0001F910F91FF90EF90DF90CF90BF90AF903C
:100B00009F908F9008951F920F920FB60F9211240D
:100B10002F933F934F935F936F937F938F939F9305
:100B2000AF93BF93EF93FF938DE591E00E94ED01AA
:100B3000FF91EF91BF91AF919F918F917F916F91B5
:100B40005F914F913F912F910F900FBE0F901F908B
:100B500018951F920F920FB60F9211242F938F9317
:100B60009F93EF93FF93E0916D01F0916E0180816F
:100B7000E0917301F091740182FD12C09081809127
:100B800076018F5F8F7320917701821751F0E0918A
:100B90007601F0E0E35AFE4F958F8093760101C015
:100BA0008081FF91EF919F918F912F910F900FBEB8
:100BB0000F901F9018951F920F920FB60F9211244D
:100BC0002F933F938F939F93AF93BF938091510146
:100BD00090915201A0915301B09154013091500174
:100BE00023E0230F2D3720F40196A11DB11D05C070
:100BF00026E8230F0296A11DB11D2093500180937A
:100C0000510190935201A0935301B09354018091EC
:100C1000550190915601A0915701B091580101964C
:100C2000A11DB11D8093550190935601A0935701CA
:100C3000B0935801BF91AF919F918F913F912F91A8
:100C40000F900FBE0F901F901895EDE5F1E0138205
:100C5000128288EE93E0A0E0B0E084839583A683BF
:100C6000B78384E091E09183808385EC90E0958761
:100C7000848784EC90E09787868780EC90E0918B66
:100C8000808B81EC90E0938B828B82EC90E0958B53
:100C9000848B86EC90E0978B868B118E128E138E50
:100CA000148EEAEFF1E01382128286E191E09183E3
:100CB000808383E0848384E0858385E0868386E087
:100CC000878387E0808716860895789484B582604C
:100CD00084BD84B5816084BD85B5826085BD85B5E0
:100CE000816085BD80916E00816080936E0010925E
:100CF00081008091810082608093810080918100D9
:100D00008160809381008091800081608093800069
:100D10008091B10084608093B1008091B0008160C7
:100D20008093B00080917A00846080937A008091F3
:100D30007A00826080937A0080917A00816080934B
:100D40007A0080917A00806880937A001092C100C6
:100D5000E0916D01F0916E0182E08083E091690184
:100D6000F0916A011082E0916B01F0916C018FECBF
:100D7000808310927501E0917101F091720186E01B
:100D80008083E0916F01F0917001808180618083A8
:100D9000E0916F01F0917001808188608083E09123
:100DA0006F01F0917001808180688083E0916F0114
:100DB000F091700180818F7D808360E080E00E94EF
:100DC000E00260E082E00E94E00284E58093040299
:100DD00080E38093050210920302109206021092A3
:100DE000070280E4E9E0F2E0DF011D928A95E9F76D
:100DF00061E08091FE010E94E00261E08091FF01CC
:100E00000E94E00261E0809100020E94E00261E045
:100E1000809101020E94E00261E0809102020E9442
:100E2000E00261E0809101020E94B10261E08091E4
:100E300002020E94B10260E0809101020E94B102B0
:100E400064E670E080E090E00E94410361E0809100
:100E500001020E94B10241E260E08AEF91E00E944B
:100E60007F0343E160E08AEF91E00E947F0380917D
:100E70000302813041F440EE60E08AEF91E00E948D
:100E80007F0345E001C042EC60E08AEF91E00E9400
:100E90007F0340E260E08AEF91E00E947F0349E037
:100EA00060E08AEF91E00E947F0380E00E94AD0342
:100EB000C0E0D0E09091040280910502869586956D
:100EC0008695989FC0011124C817D90740F440E0C7
:100ED00061E08AEF91E00E947F032196EBCF80E0F2
:100EE0000E94AD0348E060E08AEF91E00E947F033A
:100EF0004CE060E08AEF91E00E947F0364E670E0DE
:100F000080E090E00E94410340E860E08AEF91E0D9
:100F10000E947F0340E460E08AEF91E00E947F033B
:100F20006AE271E08AEF91E00E94D00361E088E01C
:100F30000E94E00290E4C92EC0E9D2E00CE712E082
:100F400028E6E22E22E0F22EC0927C0080917A0008
:100F5000806480937A0080917A0086FDFCCF609156
:100F6000780070917900072E000C880B990B0E9475
:100F7000980929EC36E740EA50E40E944D0A20E047
:100F800030E040E85AE30E944D0A25E535E545E5A5
:100F90005FE30E94EE084B015C012CEE31E548EB6B
:100FA0005DE30E94E90887FD09C080925901909293
:100FB0005A01A0925B01B0925C0108C010925901E5
:100FC00010925A0110925B0110925C01FE01849113
:100FD000F801B490F701D490DD20A1F081110E94B6
:100FE0008802ED2DF0E0EE0FFF1FE45AFD4FA591B2
:100FF000B4918C918B2121E030E011F420E030E0BD
:10100000232B71F482E00E94AD0368E371E08AEF64
:1010100091E00E94D00320E030E040EA50E40DC0AF
:1010200082E00E94AD0368E371E08AEF91E00E94E4
:10103000D00320E030E040EA50EC6091590170911B
:101040005A0180915B0190915C010E944D0A42E03F
:101050000E94A90420E030E040EA50E46091590188
:1010600070915A0180915B0190915C010E944D0A40
:101070000E9460094B01770FAA08BB08B7FE0EC09B
:101080006DE28DE591E00E940F0244275527BA01D9
:10109000481959096A097B092AE003C02AE0B50109
:1010A000A4018DE591E00E94E50362E471E08DE525
:1010B00091E00E94D00365E471E08DE591E00E942B
:1010C000D00381E00E94AD0368E471E08AEF91E013
:1010D0000E94D00364EF71E080E090E00E94410341
:1010E0000E947E0231CFFB01DC0102C005900D920F
:1010F00041505040D8F708955058BB27AA270E9466
:1011000094080C940E0A0E94000A38F00E94070A04
:1011100020F039F49F3F19F426F40C94FD090EF4E5
:10112000E095E7FB0C94F709E92F0E941F0A58F39A
:10113000BA17620773078407950720F079F4A6F5BC
:101140000C94410A0EF4E0950B2EBA2FA02D0B0142
:10115000B90190010C01CA01A0011124FF27591BFC
:1011600099F0593F50F4503E68F11A16F040A22F02
:10117000232F342F4427585FF3CF46953795279573
:10118000A795F0405395C9F77EF41F16BA0B620B72
:10119000730B840BBAF09150A1F0FF0FBB1F661FB9
:1011A000771F881FC2F70EC0BA0F621F731F841FFC
:1011B00048F4879577956795B795F7959E3F08F022
:1011C000B0CF9395880F08F09927EE0F97958795E4
:1011D00008950E94D30908F481E008950E9402094D
:1011E0000C940E0A0E94070A58F00E94000A40F070
:1011F00029F45F3F29F00C94F70951110C94420A2D
:101200000C94FD090E941F0A68F39923B1F355233A
:1012100091F3951B550BBB27AA2762177307840709
:1012200038F09F5F5F4F220F331F441FAA1FA9F39F
:1012300035D00E2E3AF0E0E832D091505040E6958D
:10124000001CCAF72BD0FE2F29D0660F771F881FEE
:10125000BB1F261737074807AB07B0E809F0BB0BE1
:10126000802DBF01FF2793585F4F3AF09E3F5105F5
:1012700078F00C94F7090C94420A5F3FE4F3983E2F
:10128000D4F3869577956795B795F7959F5FC9F7DE
:10129000880F911D9695879597F90895E1E0660F5F
:1012A000771F881FBB1F621773078407BA0720F0D8
:1012B000621B730B840BBA0BEE1F88F7E095089541
:1012C0000E9467096894B1110C94420A08950E9423
:1012D000270A88F09F5798F0B92F9927B751B0F097
:1012E000E1F0660F771F881F991F1AF0BA95C9F7AA
:1012F00014C0B13091F00E94410AB1E008950C94FD
:10130000410A672F782F8827B85F39F0B93FCCF3AF
:10131000869577956795B395D9F73EF49095809526
:10132000709561957F4F8F4F9F4F0895E89409C046
:1013300097FB3EF490958095709561957F4F8F4F08
:101340009F4F9923A9F0F92F96E9BB279395F6951E
:10135000879577956795B795F111F8CFFAF4BB0F9C
:1013600011F460FF1BC06F5F7F4F8F4F9F4F16C000
:10137000882311F096E911C0772321F09EE8872F8A
:10138000762F05C0662371F096E8862F70E060E046
:101390002AF09A95660F771F881FDAF7880F9695BF
:1013A000879597F90895990F0008550FAA0BE0E863
:1013B000FEEF16161706E807F907C0F01216130617
:1013C000E407F50798F0621B730B840B950B39F457
:1013D0000A2661F0232B242B252B21F408950A26BD
:1013E00009F4A140A6958FEF811D811D089597F9FD
:1013F0009F6780E870E060E008959FEF80EC0895BB
:1014000000240A94161617061806090608950024E3
:101410000A9412161306140605060895092E03945D
:10142000000C11F4882352F0BB0F40F4BF2B11F4D1
:1014300060FF04C06F5F7F4F8F4F9F4F089557FD30
:101440009058440F551F59F05F3F71F04795880F32
:1014500097FB991F61F09F3F79F0879508951216C9
:1014600013061406551FF2CF4695F1DF08C0161675
:1014700017061806991FF1CF869571056105089426
:101480000895E894BB2766277727CB0197F908953D
:101490000E94D30908F48FEF08950E94600A0C940B
:1014A0000E0A0E94000A38F00E94070A20F09523D5
:1014B00011F00C94F7090C94FD0911240C94420AC4
:1014C0000E941F0A70F3959FC1F3950F50E0551FBE
:1014D000629FF001729FBB27F00DB11D639FAA2789
:1014E000F00DB11DAA1F649F6627B00DA11D661FD8
:1014F000829F2227B00DA11D621F739FB00DA11DF9
:10150000621F839FA00D611D221F749F3327A00DB2
:10151000611D231F849F600D211D822F762F6A2F4E
:1015200011249F5750409AF0F1F088234AF0EE0FB3
:10153000FF1FBB1F661F771F881F91505040A9F7E0
:101540009E3F510580F00C94F7090C94420A5F3FCE
:10155000E4F3983ED4F3869577956795B795F7951C
:10156000E7959F5FC1F7FE2B880F911D9695879594
:1015700097F908950E94D309880B990B089597FB5A
:10158000072E16F4009407D077FD09D00E94F50AC3
:1015900007FC05D03EF4909581959F4F0895709576
:1015A00061957F4F0895A1E21A2EAA1BBB1BFD0176
:1015B0000DC0AA1FBB1FEE1FFF1FA217B307E40732
:1015C000F50720F0A21BB30BE40BF50B661F771F8A
:1015D000881F991F1A9469F760957095809590956A
:1015E0009B01AC01BD01CF010895AA1BBB1B51E1BA
:1015F00007C0AA1FBB1FA617B70710F0A61BB70B83
:10160000881F991F5A95A9F780959095BC01CD0127
:101610000895EE0FFF1F0590F491E02D099481E0ED
:0C16200090E0F8940C94140BF894FFCFA9
:10162C00000000000F027C01A6015C02D701B5018D
:10163C00C901000000002E047C017C037B036E6159
:10164C006E00696E66006F766600444320564F4C00
:10165C0054494D4554524F00494E50555420563D17
:10166C0020002056000D0A0043616E616C20310091
:00000001FF
