:100000000C9452010C947A010C947A010C947A01AC
:100010000C947A010C947A010C947A010C947A0174
:100020000C947A010C947A010C947A010C947A0164
:100030000C947A010C947A010C947A010C947A0154
:100040000C94FC050C947A010C94CA050C94A4053C
:100050000C947A010C947A010C947A010C947A0134
:100060000C947A010C947A01000000000000005FFB
:1000700000000007000700147F147F14242A7F2A41
:10008000122313086462364955225000050300000C
:10009000001C2241000041221C0014083E081408E4
:1000A000083E0808005030000008080808080060F2
:1000B00060000020100804023E5149453E00427F86
:1000C000400042615149462141454B311814127F8D
:1000D0001027454545393C4A494930017109050316
:1000E0003649494936064949291E0036360000007E
:1000F0005636000008142241001414141414004150
:100100002214080201510906324979413E7E11113B
:10011000117E7F494949363E414141227F4141227A
:100120001C7F494949417F090909013E4149497AF2
:100130007F0808087F00417F41002040413F017F48
:10014000081422417F404040407F020C027F7F0420
:1001500008107F3E4141413E7F090909063E415159
:10016000215E7F09192946464949493101017F012C
:10017000013F4040403F1F2040201F3F4038403F4C
:100180006314081463070870080761514945430068
:100190007F41410002040810200041417F00040219
:1001A0000102044040404040000102040020545439
:1001B00054787F48444438384444442038444448C0
:1001C0007F3854545418087E0901020C5252523E92
:1001D0007F0804047800447D40002040443D007FB7
:1001E0001028440000417F40007C041804787C08FB
:1001F00004047838444444387C1414140808141453
:10020000187C7C080404084854545420043F44409B
:10021000203C4040207C1C2040201C3C4030403C86
:1002200044281028440C5050503C4464544C440022
:100230000836410000007F00000041360800100829
:100240000810080000000000000000002400270043
:100250002A0000000000250028002B0000000000FC
:1002600023002600290004040404040404040202F8
:100270000202020203030303030301020408102025
:100280004080010204081020010204081020000030
:100290000008000201000003040700000000000045
:1002A0000000460611241FBECFEFD8E0DEBFCDBF51
:1002B00011E0A0E0B1E0E2E0F6E102C005900D92AD
:1002C000A836B107D9F722E0A8E6B1E001C01D9237
:1002D000A636B207E1F711E0C2E5D1E004C02197EC
:1002E000FE010E94F40AC135D107C9F70E948606B3
:1002F0000C94FF0A0C940000CF92DF92EF92FF92D1
:100300000F931F93CF93DF936C017A018B01C0E0B1
:10031000D0E0CE15DF0581F0D8016D918D01D601B9
:10032000ED91FC910190F081E02DC6010995892B9A
:1003300011F02196EECF7E01C701DF91CF911F9181
:100340000F91FF90EF90DF90CF900895FC01538DB7
:10035000448D252F30E0842F90E0821B930B54179F
:1003600010F0CF96089501970895FC01918D828D2C
:10037000981761F0828DDF01A80FB11D5D968C91F9
:10038000928D9F5F9F73928F90E008958FEF9FEF04
:100390000895FC01918D828D981731F0828DE80FC0
:1003A000F11D858D90E008958FEF9FEF0895FC017A
:1003B000918D228D892F90E0805C9F4F821B910947
:1003C0008F73992708958AE791E00E94D70121E071
:1003D000892B09F420E0822F0895FC01848DDF0130
:1003E000A80FB11DA35ABF4F2C91848D90E00196A8
:1003F0008F739927848FA689B7892C93A089B18997
:100400008C91837080648C93938D848D981306C037
:100410000288F389E02D80818F7D80830895EF929B
:10042000FF920F931F93CF93DF93EC0181E0888FAE
:100430009B8D8C8D981305C0E889F989808185FD95
:1004400026C0F62E0B8D10E00F5F1F4F0F73112784
:10045000E02E8C8DE8120CC00FB607FCFACFE889AD
:10046000F989808185FFF5CFCE010E94ED01F1CFA2
:100470008B8DFE01E80FF11DE35AFF4FF0829FB70D
:10048000F8940B8FEA89FB89808180620AC09FB74C
:10049000F894EE89FF896083E889F9898081837007
:1004A000806480839FBF81E090E0DF91CF911F91B6
:1004B0000F91FF90EF900895CF93DF93EC01888D1B
:1004C0008823C9F0EA89FB89808185FD05C0A88958
:1004D000B9898C9186FD0FC00FB607FCF5CF8081DE
:1004E00085FFF2CFA889B9898C9185FFEDCFCE0128
:1004F0000E94ED01E7CFDF91CF91089580E090E079
:10050000892B29F00E94E30181110C9400000895C9
:10051000833081F028F4813099F08230A1F0089581
:100520008730A9F08830B9F08430D1F48091800010
:100530008F7D03C0809180008F7780938000089525
:1005400084B58F7702C084B58F7D84BD0895809176
:10055000B0008F7703C08091B0008F7D8093B00092
:100560000895CF93DF93282F30E0F901E257FD4F34
:100570008491F901E658FD4FD491F901EA59FD4FF4
:10058000C491CC2391F081110E948802EC2FF0E0FD
:10059000EE0FFF1FE45AFD4FA591B491EC91ED23AE
:1005A00081E090E021F480E002C080E090E0DF9103
:1005B000CF9108951F93CF93DF93282F30E0F90157
:1005C000E257FD4F8491F901E658FD4FD491F901AE
:1005D000EA59FD4FC491CC23C1F0162F81110E941E
:1005E0008802EC2FF0E0EE0FFF1FEE5AFD4FA591B1
:1005F000B4919FB7F894111104C08C91D095D82371
:1006000002C0EC91DE2BDC939FBFDF91CF911F9155
:100610000895CF93DF9390E0FC01E658FD4F2491BD
:10062000FC01EA59FD4F8491882361F190E0880F25
:10063000991FFC01E85BFD4FC591D491FC01EE5A76
:10064000FD4FA591B491611109C09FB7F8948881BD
:10065000209582238883EC912E230BC0623061F4B5
:100660009FB7F8948881322F309583238883EC914B
:100670002E2B2C939FBF06C08FB7F894E8812E2BAA
:1006800028838FBFDF91CF9108953FB7F894809171
:100690006D0190916E01A0916F01B091700126B52E
:1006A000A89B05C02F3F19F00196A11DB11D3FBFAA
:1006B000BA2FA92F982F8827820F911DA11DB11D38
:1006C000BC01CD0142E0660F771F881F991F4A9534
:1006D000D1F708958F929F92AF92BF92CF92DF92FF
:1006E000EF92FF920E9445034B015C0184E6C82E05
:1006F000D12CE12CF12C0E944503DC01CB0188199F
:100700009909AA09BB09883E9340A105B10598F350
:1007100021E0C21AD108E108F10888EE880E83E0D2
:10072000981EA11CB11CC114D104E104F10419F7F5
:10073000FF90EF90DF90CF90BF90AF909F908F9001
:100740000895089580E090E00895009769F0FC0115
:1007500001900020E9F73197AF01481B590BBC010C
:1007600087E192E00C947C0180E090E00895EF92A4
:10077000FF920F931F93CF93DF93EC01042F8E8191
:100780000E94DA0260E088850E94DA02FC80ED8037
:1007900018E0602F661F6627661F8E2D0E94DA0202
:1007A000000F61E08F2D0E94DA0260E08F2D0E9421
:1007B000DA02115071F761E08885DF91CF911F91C6
:1007C0000F91FF90EF900C94DA02CF93DF93C7E183
:1007D000D2E01C86282F30E09B8569E3969F612D2F
:1007E0001124669570E06F5F7F4FC9010E94AA0ACD
:1007F0008D8740E860E0CE010E94B7034D854064DC
:1008000060E0CE01DF91CF910C94B7030E94FA0A09
:10081000DF92EF92FF920F931F93CF93DF9300D05D
:1008200000D01F92CDB7DEB767FD5BC07C01862F7D
:1008300090E0603260F0809725E0289FB001299F0A
:10084000700D112468597F4F45E050E00EC0880FAD
:10085000991FF701E80FF91F078510890115110588
:1008600059F445E050E068E670E0CE0101960E9440
:1008700065088E010F5F1F4F85E0D82EF701868532
:10088000F80140818111409561E0C7010E94B703E2
:10089000DA940F5F1F4FD110F1CFF70146854195D4
:1008A00061E0C7010E94B703F701848590E00696D6
:1008B000628570E00E94AA0A8487811115C025858F
:1008C00030E02F5F3F4F938569E3969F612D1124A0
:1008D000669570E06F5F7F4FC9010E94AA0A858705
:1008E00003C080E090E002C081E090E00F900F90A4
:1008F0000F900F900F90DF91CF911F910F91FF906C
:10090000EF90DF9008952F923F924F925F926F92F7
:100910007F928F929F92AF92BF92CF92DF92EF928F
:10092000FF920F931F93CF93DF93CDB7DEB7A497BA
:100930000FB6F894DEBF0FBECDBF4B015C01F42EA5
:100940009B01AC010E94A50A882319F08EE191E079
:1009500027C024013501E89477F82FEF3FEF4FE7E8
:100960005FE7C301B2010E94A50A81110DC02FEFFC
:100970003FEF4FE75FE7C301B2010E94DB081816A3
:100980001CF482E291E00CC02FEF3FEF4FE75FE4F1
:10099000C501B4010E94330A18162CF486E291E0D6
:1009A0000E94A503B8C02FEF3FEF4FE75FECC501F2
:1009B000B4010E94DB0887FDF1CF20E030E0A901FF
:1009C000C501B4010E94DB0887FF0BC06DE287E11F
:1009D00092E00E9408043C01B7FAB094B7F8B094D2
:1009E00002C0612C712C10E060E070E080E09FE3B9
:1009F000F11641F020E030E040E251E40E94E008CE
:100A00001F5FF6CFA50194010E946F084B015C01A6
:100A10000E9452096AA3C72ED82EE92E19A2262FAA
:100A2000372F482F592F8E010F5D1F4F0BA31CA38B
:100A30009AE0292E312C412C512CCA01B901A20176
:100A400091010E94BE0A605DF80162938F01211539
:100A500031054105510589F7CF010E94A5038301A6
:100A6000080F191FFF2009F455C06AA17C2D8D2D98
:100A70009E2D0E9481099B01AC01C501B4010E9419
:100A80006E084B015C016EE287E192E00E9408046F
:100A9000080F191F8AE0282E312C412C512C20E000
:100AA00030E040E251E4C501B4010E94380A4B0134
:100AB0005C010E9452099B0140E050E019A2CBA0CA
:100AC000DCA0762E3AA3642EE52ECA01B901A2015C
:100AD00091010E94BE0A605DF60162936F012115CB
:100AE00031054105510589F7CF010E94A503080F83
:100AF000191F672D7AA1862D9E2D0E9481099B01C9
:100B0000AC01C501B4010E946E084B015C01FA946E
:100B1000F110C5CFC801A4960FB6F894DEBF0FBE82
:100B2000CDBFDF91CF911F910F91FF90EF90DF909C
:100B3000CF90BF90AF909F908F907F906F905F907D
:100B40004F903F902F9008951F920F920FB60F92E3
:100B500011242F933F934F935F936F937F938F93C2
:100B60009F93AF93BF93EF93FF938AE791E00E9427
:100B7000ED01FF91EF91BF91AF919F918F917F9187
:100B80006F915F914F913F912F910F900FBE0F90FA
:100B90001F9018951F920F920FB60F9211242F934A
:100BA0008F939F93EF93FF93E0918A01F0918B01D4
:100BB0008081E0919001F091910182FD12C09081BD
:100BC000809193018F5F8F7320919401821751F070
:100BD000E0919301F0E0E658FE4F958F80939301EA
:100BE00001C08081FF91EF919F918F912F910F9084
:100BF0000FBE0F901F9018951F920F920FB60F9275
:100C000011242F933F938F939F93AF93BF93809122
:100C1000690190916A01A0916B01B0916C013091D2
:100C2000680123E0230F2D3720F40196A11DB11D8B
:100C300005C026E8230F0296A11DB11D209368016F
:100C40008093690190936A01A0936B01B0936C014A
:100C500080916D0190916E01A0916F01B091700132
:100C60000196A11DB11D80936D0190936E01A0931B
:100C70006F01B0937001BF91AF919F918F913F91A0
:100C80002F910F900FBE0F901F901895EAE7F1E09B
:100C90001382128288EE93E0A0E0B0E08483958313
:100CA000A683B78384E091E09183808385EC90E014
:100CB0009587848784EC90E09787868780EC90E026
:100CC000918B808B81EC90E0938B828B82EC90E017
:100CD000958B848B86EC90E0978B868B118E128E91
:100CE000138E148EE7E1F2E01382128286E191E026
:100CF0009183808383E0848384E0858385E0868399
:100D000086E0878387E0808716860895789484B587
:100D1000826084BD84B5816084BD85B5826085BDF7
:100D200085B5816085BD80916E00816080936E0085
:100D30001092810080918100826080938100809177
:100D40008100816080938100809180008160809328
:100D500080008091B10084608093B1008091B000E8
:100D600081608093B00080917A00846080937A00E3
:100D700080917A00826080937A0080917A0081600D
:100D800080937A0080917A00806880937A00109234
:100D9000C100E0918A01F0918B0182E08083E091B3
:100DA0008601F09187011082E0918801F09189011C
:100DB0008FEC808310929201E0918E01F0918F016F
:100DC00086E08083E0918C01F0918D0180818061CB
:100DD0008083E0918C01F0918D0180818860808317
:100DE000E0918C01F0918D01808180688083E09199
:100DF0008C01F0918D0180818F7D808360E080E0A7
:100E00000E94090360E082E00E94090360E08DE037
:100E10000E94090384E58093210280E380932202EB
:100E200010922002109223021092240280E4E6E243
:100E3000F2E0DF011D928A95E9F761E080911B02E3
:100E40000E94090361E080911C020E94090361E095
:100E500080911D020E94090361E080911E020E94A0
:100E6000090361E080911F020E94090361E0809103
:100E70001E020E94DA0261E080911F020E94DA02E3
:100E800060E080911E020E94DA020E946A0361E023
:100E900080911E020E94DA0241E260E087E192E066
:100EA0000E94B70343E160E087E192E00E94B7034C
:100EB00080912002813041F440EE60E087E192E0D1
:100EC0000E94B70345E001C042EC60E087E192E098
:100ED0000E94B70340E260E087E192E00E94B7031E
:100EE00049E060E087E192E00E94B70380E00E9461
:100EF000E503C0E0D0E09091210280912202869526
:100F000086958695989FC0011124C817D90740F48B
:100F100040E061E087E192E00E94B7032196EBCFC9
:100F200080E00E94E50348E060E087E192E00E94F3
:100F3000B7034CE060E087E192E00E94B7030E94B3
:100F40006A0340E860E087E192E00E94B70340E472
:100F500060E087E192E00E94B7038AE291E00E949C
:100F6000A50361E088E00E94090310E484EAC82E2A
:100F700084EBD82E89EAE82E81E4F82E82E00E94E4
:100F8000B102809379018DE00E94B102EC011093CF
:100F90007C0080917A00806480937A0080917A004E
:100FA00086FDFCCF6091780070917900072E000CCF
:100FB000880B990B0E94830929EC36E740EA50E43C
:100FC0000E94380A20E030E040E85AE30E94380AE4
:100FD00025E535E545E55FE30E94E008609375018E
:100FE00070937601809377019093780180917901D5
:100FF000CD2B39F581110CC082E00E94E50388E316
:1010000091E00E94A50320E030E040EA50E40EC0E9
:10101000813009F050C082E00E94E50383E491E052
:101020000E94A50320E030E040EA50EC6091750199
:101030007091760180917701909178010E94380A31
:1010400037C081111AC0C0927101D0927201E09232
:101050007301F092740182E00E94E5038EE491E056
:101060000E94A503609171017091720180917301DA
:101070009091740142E00E94830480917901813053
:10108000D1F4C0927101D0927201E0927301F0929A
:10109000740182E00E94E50387E591E00E94A503C8
:1010A000609171017091720180917301909174014E
:1010B00042E00E94830481E00E94E50380E691E023
:1010C0000E94A5030E947E0259CFFB01DC0102C0F1
:1010D00005900D9241505040D8F708955058BB27C5
:1010E000AA270E9486080C94F9090E94EB0938F09F
:1010F0000E94F20920F039F49F3F19F426F40C9471
:10110000E8090EF4E095E7FB0C94E209E92F0E9450
:101110000A0A58F3BA17620773078407950720F085
:1011200079F4A6F50C942C0A0EF4E0950B2EBA2F48
:10113000A02D0B01B90190010C01CA01A0011124DD
:10114000FF27591B99F0593F50F4503E68F11A1689
:10115000F040A22F232F342F4427585FF3CF46951A
:1011600037952795A795F0405395C9F77EF41F163C
:10117000BA0B620B730B840BBAF09150A1F0FF0F06
:10118000BB1F661F771F881FC2F70EC0BA0F621FF2
:10119000731F841F48F4879577956795B795F795E2
:1011A0009E3F08F0B0CF9395880F08F09927EE0F77
:1011B0009795879508950E94BE0908F481E00895E7
:1011C0000E94F4080C94F9090E94F20958F00E9458
:1011D000EB0940F029F45F3F29F00C94E20951112A
:1011E0000C942D0A0C94E8090E940A0A68F39923CA
:1011F000B1F3552391F3951B550BBB27AA27621713
:101200007307840738F09F5F5F4F220F331F441F1F
:10121000AA1FA9F335D00E2E3AF0E0E832D0915053
:101220005040E695001CCAF72BD0FE2F29D0660F40
:10123000771F881FBB1F261737074807AB07B0E883
:1012400009F0BB0B802DBF01FF2793585F4F3AF089
:101250009E3F510578F00C94E2090C942D0A5F3FF3
:10126000E4F3983ED4F3869577956795B795F7950F
:101270009F5FC9F7880F911D9695879597F90895F7
:10128000E1E0660F771F881FBB1F62177307840793
:10129000BA0720F0621B730B840BBA0BEE1F88F7A2
:1012A000E09508950E94120A88F09F5798F0B92F90
:1012B0009927B751B0F0E1F0660F771F881F991F8B
:1012C0001AF0BA95C9F714C0B13091F00E942C0AF7
:1012D000B1E008950C942C0A672F782F8827B85F07
:1012E00039F0B93FCCF3869577956795B395D9F7E3
:1012F0003EF490958095709561957F4F8F4F9F4FED
:101300000895E89409C097FB3EF4909580957095F8
:1013100061957F4F8F4F9F4F9923A9F0F92F96E941
:10132000BB279395F695879577956795B795F111B6
:10133000F8CFFAF4BB0F11F460FF1BC06F5F7F4F53
:101340008F4F9F4F16C0882311F096E911C0772365
:1013500021F09EE8872F762F05C0662371F096E86E
:10136000862F70E060E02AF09A95660F771F881F3D
:10137000DAF7880F9695879597F90895990F0008E1
:10138000550FAA0BE0E8FEEF16161706E807F90757
:10139000C0F012161306E407F50798F0621B730BF2
:1013A000840B950B39F40A2661F0232B242B252B73
:1013B00021F408950A2609F4A140A6958FEF811D16
:1013C000811D089597F99F6780E870E060E00895B7
:1013D0009FEF80EC089500240A941616170618064D
:1013E0000906089500240A94121613061406050629
:1013F0000895092E0394000C11F4882352F0BB0FBA
:1014000040F4BF2B11F460FF04C06F5F7F4F8F4F1C
:101410009F4F089557FD9058440F551F59F05F3F57
:1014200071F04795880F97FB991F61F09F3F79F006
:1014300087950895121613061406551FF2CF469588
:10144000F1DF08C0161617061806991FF1CF86950A
:101450007105610508940895E894BB2766277727EE
:10146000CB0197F908950E94BE0908F48FEF089503
:101470000E944B0A0C94F9090E94EB0938F00E9473
:10148000F20920F0952311F00C94E2090C94E8097C
:1014900011240C942D0A0E940A0A70F3959FC1F33F
:1014A000950F50E0551F629FF001729FBB27F00D12
:1014B000B11D639FAA27F00DB11DAA1F649F662767
:1014C000B00DA11D661F829F2227B00DA11D621FB6
:1014D000739FB00DA11D621F839FA00D611D221F70
:1014E000749F3327A00D611D231F849F600D211D54
:1014F000822F762F6A2F11249F5750409AF0F1F0D7
:1015000088234AF0EE0FFF1FBB1F661F771F881F3F
:1015100091505040A9F79E3F510580F00C94E2098C
:101520000C942D0A5F3FE4F3983ED4F386957795AB
:101530006795B795F795E7959F5FC1F7FE2B880FE5
:10154000911D9695879597F908950E94BE09880B7D
:10155000990B089597FB072E16F4009407D077FD9A
:1015600009D00E94E00A07FC05D03EF490958195D1
:101570009F4F0895709561957F4F0895A1E21A2EAF
:10158000AA1BBB1BFD010DC0AA1FBB1FEE1FFF1F27
:10159000A217B307E407F50720F0A21BB30BE40B77
:1015A000F50B661F771F881F991F1A9469F76095BE
:1015B0007095809590959B01AC01BD01CF01089578
:1015C000AA1BBB1B51E107C0AA1FBB1FA617B70769
:1015D00010F0A61BB70B881F991F5A95A9F7809585
:1015E0009095BC01CD010895EE0FFF1F0590F49179
:1015F000E02D099481E090E0F8940C94FF0AF894AF
:02160000FFCF1A
:10160200000000000F027C01A6015C02D701B501B7
:10161200C9010000000008047C01A203A1036E615D
:101622006E00696E66006F766600444320564F4C2A
:1016320054494D4554524F00494E5055542056314D
:101642003D2000494E5055542056323D2000524D07
:10165200532056313D2000524D532056323D20003A
:0816620043616E616C20310050
:00000001FF
