:100000000C9452010C947A010C947A010C947A01AC
:100010000C947A010C947A010C947A010C947A0174
:100020000C947A010C947A010C947A010C947A0164
:100030000C947A010C947A010C947A010C947A0154
:100040000C9442060C947A010C9410060C94EA0568
:100050000C947A010C947A010C947A010C947A0134
:100060000C947A010C947A01000000000000005FFB
:1000700000000007000700147F147F14242A7F2A41
:10008000122313086462364955225000050300000C
:10009000001C2241000041221C0014083E081408E4
:1000A000083E0808005030000008080808080060F2
:1000B00060000020100804023E5149453E00427F86
:1000C000400042615149462141454B311814127F8D
:1000D0001027454545393C4A494930017109050316
:1000E0003649494936064949291E0036360000007E
:1000F0005636000008142241001414141414004150
:100100002214080201510906324979413E7E11113B
:10011000117E7F494949363E414141227F4141227A
:100120001C7F494949417F090909013E4149497AF2
:100130007F0808087F00417F41002040413F017F48
:10014000081422417F404040407F020C027F7F0420
:1001500008107F3E4141413E7F090909063E415159
:10016000215E7F09192946464949493101017F012C
:10017000013F4040403F1F2040201F3F4038403F4C
:100180006314081463070870080761514945430068
:100190007F41410002040810200041417F00040219
:1001A0000102044040404040000102040020545439
:1001B00054787F48444438384444442038444448C0
:1001C0007F3854545418087E0901020C5252523E92
:1001D0007F0804047800447D40002040443D007FB7
:1001E0001028440000417F40007C041804787C08FB
:1001F00004047838444444387C1414140808141453
:10020000187C7C080404084854545420043F44409B
:10021000203C4040207C1C2040201C3C4030403C86
:1002200044281028440C5050503C4464544C440022
:100230000836410000007F00000041360800100829
:100240000810080000000000000000002400270043
:100250002A0000000000250028002B0000000000FC
:1002600023002600290004040404040404040202F8
:100270000202020203030303030301020408102025
:100280004080010204081020010204081020000030
:100290000008000201000003040700000000000045
:1002A00000008C0611241FBECFEFD8E0DEBFCDBF0B
:1002B00011E0A0E0B1E0EAE5FEE102C005900D9298
:1002C000A03BB107D9F722E0A0EBB1E001C01D923D
:1002D000A93CB207E1F711E0C2E5D1E004C02197E3
:1002E000FE010E94200FC135D107C9F70E94CC063C
:1002F0000C942B0F0C940000CF92DF92EF92FF92A0
:100300000F931F93CF93DF936C017A018B01C0E0B1
:10031000D0E0CE15DF0581F0D8016D918D01D601B9
:10032000ED91FC910190F081E02DC6010995892B9A
:1003300011F02196EECF7E01C701DF91CF911F9181
:100340000F91FF90EF90DF90CF900895FC01538DB7
:10035000448D252F30E0842F90E0821B930B54179F
:1003600010F0CF96089501970895FC01918D828D2C
:10037000981761F0828DDF01A80FB11D5D968C91F9
:10038000928D9F5F9F73928F90E008958FEF9FEF04
:100390000895FC01918D828D981731F0828DE80FC0
:1003A000F11D858D90E008958FEF9FEF0895FC017A
:1003B000918D228D892F90E0805C9F4F821B910947
:1003C0008F73992708958DED91E00E94D70121E068
:1003D000892B09F420E0822F0895FC01848DDF0130
:1003E000A80FB11DA35ABF4F2C91848D90E00196A8
:1003F0008F739927848FA689B7892C93A089B18997
:100400008C91837080648C93938D848D981306C037
:100410000288F389E02D80818F7D80830895EF929B
:10042000FF920F931F93CF93DF93EC0181E0888FAE
:100430009B8D8C8D981305C0E889F989808185FD95
:1004400026C0F62E0B8D10E00F5F1F4F0F73112784
:10045000E02E8C8DE8120CC00FB607FCFACFE889AD
:10046000F989808185FFF5CFCE010E94ED01F1CFA2
:100470008B8DFE01E80FF11DE35AFF4FF0829FB70D
:10048000F8940B8FEA89FB89808180620AC09FB74C
:10049000F894EE89FF896083E889F9898081837007
:1004A000806480839FBF81E090E0DF91CF911F91B6
:1004B0000F91FF90EF900895CF93DF93EC01888D1B
:1004C0008823C9F0EA89FB89808185FD05C0A88958
:1004D000B9898C9186FD0FC00FB607FCF5CF8081DE
:1004E00085FFF2CFA889B9898C9185FFEDCFCE0128
:1004F0000E94ED01E7CFDF91CF91089580E090E079
:10050000892B29F00E94E30181110C9400000895C9
:10051000833081F028F4813099F08230A1F0089581
:100520008730A9F08830B9F08430D1F48091800010
:100530008F7D03C0809180008F7780938000089525
:1005400084B58F7702C084B58F7D84BD0895809176
:10055000B0008F7703C08091B0008F7D8093B00092
:100560000895CF93DF93282F30E0F901E257FD4F34
:100570008491F901E658FD4FD491F901EA59FD4FF4
:10058000C491CC2391F081110E948802EC2FF0E0FD
:10059000EE0FFF1FE45AFD4FA591B491EC91ED23AE
:1005A00081E090E021F480E002C080E090E0DF9103
:1005B000CF9108951F93CF93DF93282F30E0F90157
:1005C000E257FD4F8491F901E658FD4FD491F901AE
:1005D000EA59FD4FC491CC23C1F0162F81110E941E
:1005E0008802EC2FF0E0EE0FFF1FEE5AFD4FA591B1
:1005F000B4919FB7F894111104C08C91D095D82371
:1006000002C0EC91DE2BDC939FBFDF91CF911F9155
:100610000895CF93DF9390E0FC01E658FD4F2491BD
:10062000FC01EA59FD4F8491882361F190E0880F25
:10063000991FFC01E85BFD4FC591D491FC01EE5A76
:10064000FD4FA591B491611109C09FB7F8948881BD
:10065000209582238883EC912E230BC0623061F4B5
:100660009FB7F8948881322F309583238883EC914B
:100670002E2B2C939FBF06C08FB7F894E8812E2BAA
:1006800028838FBFDF91CF9108958E3008F08E5070
:100690008770806480937C0080917A00806480936E
:1006A0007A0080917A0086FDFCCF8091780090914D
:1006B000790008953FB7F8948091B5019091B60103
:1006C000A091B701B091B80126B5A89B05C02F3FF6
:1006D00019F00196A11DB11D3FBFBA2FA92F982F68
:1006E0008827820F911DA11DB11DBC01CD0142E0E3
:1006F000660F771F881F991F4A95D1F708958F922B
:100700009F92AF92BF92CF92DF92EF92FF926B01D6
:100710007C010E945A034B015C01C114D104E10425
:10072000F104F1F00E945A03DC01CB018819990908
:10073000AA09BB09883E9340A105B10570F321E0E9
:10074000C21AD108E108F10888EE880E83E0981EED
:10075000A11CB11CC114D104E104F10419F7DDCFCF
:10076000FF90EF90DF90CF90BF90AF909F908F90D1
:100770000895089580E090E008950E94260FEF927A
:10078000FF920F931F93CF93DF93EC01042F8E8181
:100790000E94DA0260E088850E94DA02FC80ED8027
:1007A00018E0602F661F6627661F8E2D0E94DA02F2
:1007B000000F61E08F2D0E94DA0260E08F2D0E9411
:1007C000DA02115071F761E08885DF91CF911F91B6
:1007D0000F91FF90EF900C94DA02CF93DF93262FC6
:1007E000CAE7D2E06A850E94CA0E492F9C8730E092
:1007F0009B8569E3969F612D1124669570E06F5F7C
:100800007F4FC9010E94D60E8D87406860E0CE01FF
:100810000E94BF034D85406460E0CE01DF91CF911F
:100820000C94BF036115710579F0FB010190002064
:10083000E9F73197AF01461B570BDC01ED91FC91B5
:100840000280F381E02D099480E090E008952F92DA
:100850003F924F925F926F927F928F929F92AF9250
:10086000BF92CF92DF92EF92FF920F931F93CF939D
:10087000DF93CDB7DEB7A2970FB6F894DEBF0FBEF9
:10088000CDBF8C014A015B01D22E9A01AB01C5019B
:10089000B4010E94C50E882319F06EE171E027C0F3
:1008A00024013501E89477F82FEF3FEF4FE75FE73A
:1008B000C301B2010E94C50E81110DC02FEF3FEFA1
:1008C0004FE75FE7C301B2010E94FB0C18161CF44E
:1008D00062E271E00CC02FEF3FEF4FE75FE4C5012C
:1008E000B4010E94530E181634F466E271E0C80198
:1008F0000E941204BDC02FEF3FEF4FE75FECC50130
:10090000B4010E94FB0C87FDF0CF20E030E0A9018C
:10091000C501B4010E94FB0C87FF0FC0D801ED9107
:10092000FC910190F081E02D6DE2C80109951C0158
:10093000B7FAB094B7F8B09402C0212C312CF12C46
:1009400060E070E080E09FE3DF1441F020E030E001
:1009500040E251E40E94000DF394F6CFA50194010A
:100960000E948F0C4B015C010E94720D562E672E67
:10097000782EC92E19A2262F372F482F592F7E01E6
:10098000B1E2EB0EF11CEAA24F2CCA01B9012AE038
:1009900030E040E050E00E94EA0E605DF7016293B3
:1009A0007F01211531054105510579F7BF01C801C6
:1009B0000E9412047101E80EF91EDD2009F457C0EF
:1009C000652D762D872D9C2D0E94A10D9B01AC01DC
:1009D000C501B4010E948E0C4B015C01D801ED9160
:1009E000FC910190F081E02D6EE2C8010995E80EBE
:1009F000F91E20E030E040E251E4C501B4010E945C
:100A0000580E4B015C010E94720D9B0140E050E0CA
:100A100019A22AA0342C562E632E742EC52ECA017C
:100A2000B9012AE030E040E050E00E94EA0E605D4B
:100A3000F10162931F01211531054105510579F737
:100A4000BF01C8010E941204E80EF91E652D762D23
:100A5000872D9C2D0E94A10D9B01AC01C501B40105
:100A60000E948E0C4B015C01DA94D110C2CFC701F9
:100A7000A2960FB6F894DEBF0FBECDBFDF91CF9127
:100A80001F910F91FF90EF90DF90CF90BF90AF90AC
:100A90009F908F907F906F905F904F903F902F909E
:100AA0000895CF93DF93AB01BC0122E08DED91E07F
:100AB0000E942704EC016AE271E08DED91E00E9452
:100AC00012048C0F9D1FDF91CF910895AB01BC01E3
:100AD00022E08AE792E00C9427040C941204DF923F
:100AE000EF92FF920F931F93CF93DF9300D000D02C
:100AF0001F92CDB7DEB767FD5BC07C01862F90E00B
:100B0000603260F0809725E0289FB001299F700D2A
:100B1000112468597F4F45E050E00EC0880F991F9F
:100B2000F701E80FF91F078510890115110559F420
:100B300045E050E068E670E0CE0101960E94850C29
:100B40008E010F5F1F4F85E0D82EF7018685F801D3
:100B500040818111409561E0C7010E94BF03DA9492
:100B60000F5F1F4FD110F1CFF7014685419561E02E
:100B7000C7010E94BF03F701848590E00696628555
:100B800070E00E94D60E8487811115C0258530E063
:100B90002F5F3F4F938569E3969F612D11246695E2
:100BA00070E06F5F7F4FC9010E94D60E858703C03A
:100BB00080E090E002C081E090E00F900F900F90F5
:100BC0000F900F90DF91CF911F910F91FF90EF90B9
:100BD000DF9008951F920F920FB60F9211242F935A
:100BE0003F934F935F936F937F938F939F93AF93B5
:100BF000BF93EF93FF938DED91E00E94ED01FF9184
:100C0000EF91BF91AF919F918F917F916F915F9184
:100C10004F913F912F910F900FBE0F901F901895FD
:100C20001F920F920FB60F9211242F938F939F93C1
:100C3000EF93FF93E091ED01F091EE018081E0915F
:100C4000F301F091F40182FD12C090818091F601D0
:100C50008F5F8F732091F701821751F0E091F601B9
:100C6000F0E0E352FE4F958F8093F60101C0808142
:100C7000FF91EF919F918F912F910F900FBE0F9049
:100C80001F9018951F920F920FB60F9211242F9359
:100C90003F938F939F93AF93BF938091B1019091B6
:100CA000B201A091B301B091B4013091B00123E041
:100CB000230F2D3720F40196A11DB11D05C026E894
:100CC000230F0296A11DB11D2093B0018093B101A5
:100CD0009093B201A093B301B093B4018091B50198
:100CE0009091B601A091B701B091B8010196A11DF4
:100CF000B11D8093B5019093B601A093B701B09355
:100D0000B801BF91AF919F918F913F912F910F901B
:100D10000FBE0F901F901895EDEDF1E01382128237
:100D200088EE93E0A0E0B0E084839583A683B78348
:100D300084E091E09183808385EC90E095878487BF
:100D400084EC90E09787868780EC90E0918B808B95
:100D500081EC90E0938B828B82EC90E0958B848B7E
:100D600086EC90E0978B868B118E128E138E148EEC
:100D7000EAE7F2E01382128286E191E091838083B8
:100D800083E0848384E0858385E0868386E08783AF
:100D900087E0808716860895789484B5826084BD44
:100DA00084B5816084BD85B5826085BD85B581606F
:100DB00085BD80916E00816080936E0010928100ED
:100DC00080918100826080938100809181008160A8
:100DD0008093810080918000816080938000809169
:100DE000B10084608093B1008091B00081608093F5
:100DF000B00080917A00846080937A0080917A00BC
:100E0000826080937A0080917A00816080937A007A
:100E100080917A00806880937A001092C100E091FE
:100E2000ED01F091EE0182E08083E091E901F09123
:100E3000EA011082E091EB01F091EC018FEC8083EC
:100E40001092F501E091F101F091F20186E08083CA
:100E5000E091EF01F091F001808180618083E09169
:100E6000EF01F091F001808188608083E091EF01D3
:100E7000F091F001808180688083E091EF01F09132
:100E8000F00180818F7D808360E085E00E9409030E
:100E900060E084E00E94090360E082E00E940903B0
:100EA00060E080E00E94090360E08DE00E94090399
:100EB00060E082E00E94090360E081E00E94090393
:100EC00060E088E00E94090360E080E00E9409037E
:100ED00084E58093840280E38093850210928302EC
:100EE000109286021092870280E4E9E8F2E0DF01C6
:100EF0001D928A95E9F761E080917E020E940903C4
:100F000061E080917F020E94090361E0809180028C
:100F10000E94090361E0809181020E94090361E05F
:100F2000809182020E94090361E0809181020E9407
:100F3000DA0261E0809182020E94DA0260E0809130
:100F400081020E94DA0264E670E080E090E00E9494
:100F50007F0361E0809181020E94DA0241E260E059
:100F60008AE792E00E94BF0343E160E08AE792E0F3
:100F70000E94BF0380918302813041F440EE60E023
:100F80008AE792E00E94BF0345E001C042EC60E0C6
:100F90008AE792E00E94BF0340E260E08AE792E0C5
:100FA0000E94BF0349E060E08AE792E00E94BF032D
:100FB00060E080E00E94ED0300E010E09091840288
:100FC00080918502869586958695989FC00111240B
:100FD0000817190748F440E061E08AE792E00E94B0
:100FE000BF030F5F1F4FEACF60E080E00E94ED0378
:100FF00048E060E08AE792E00E94BF034CE060E0D6
:101000008AE792E00E94BF0364E670E080E090E02F
:101010000E947F0340E860E08AE792E00E94BF03FD
:1010200040E460E08AE792E00E94BF036DE271E075
:101030008AE792E00E946D0561E08FE00E94ED0377
:1010400067E371E08AE792E00E946D0561E089E064
:101050000E94090361E08AE00E94090361E08BE0DD
:101060000E94090361E08CE00E94090382E00E9473
:10107000B102C82F8093DC018DE00E94B1028C0187
:1010800085E00E944503BC01990F880B990B0E94D3
:10109000A30D29EC36E740EA50E40E94580E20E008
:1010A00030E040E85AE30E94580E25E535E545E575
:1010B0005FE30E94000D6B017C016093D801709387
:1010C000D9018093DA019093DB01012B09F081C0F3
:1010D000C11139C020E030E040EA50E40E94580ECF
:1010E00020E030E040EC51E40E94530E181614F456
:1010F00061E001C060E089E00E94DA0262E08CE019
:101100000E94ED0361E471E08AE792E00E946D05C0
:1011100020E030E040EA50E46091D8017091D901BC
:101120008091DA019091DB010E94580E0E946605C1
:1011300066E471E08DED91E00E946D0520E030E005
:1011400040EA50E43BC0C13009F09DC020E030E0EF
:1011500040EA50EC0E94580E20E030E040EC51ECA8
:101160000E94FB0C87FF02C061E001C060E089E0E3
:101170000E94DA0262E08CE00E94ED036DE471E00F
:101180008AE792E00E946D0520E030E040EA50ECF2
:101190006091D8017091D9018091DA019091DB01C1
:1011A0000E94580E0E94660566E471E08DED91E0A4
:1011B0000E946D0520E030E040EA50EC6091D801DB
:1011C0007091D9018091DA019091DB010E94580E53
:1011D00052C02091D4013091D5014091D601509157
:1011E000D7010E94530E18160CF04DC0C092D401C6
:1011F000D092D501E092D601F092D70120E030E004
:1012000040EC51E4C701B6010E94530E18160CF0D1
:1012100074C361E089E00E94DA0262E08CE00E941F
:10122000ED0361E571E08AE792E00E946D0520E040
:1012300030E040EA50E46091D4017091D501809192
:10124000D6019091D7010E94580E23EF34E045EB70
:101250005FE30E94000D0E94660569E571E08DED77
:1012600091E00E946D056091D4017091D50180914B
:10127000D6019091D7010E94510564EF71E080E0A2
:1012800090E00E947F0381E00E94B102C82F80930A
:10129000D3018DE00E94B1028C0184E00E944503DD
:1012A000BC01990F880B990B0E94A30D29EC36E71E
:1012B00040EA50E40E94580E20E030E040E85AE353
:1012C0000E94580E25E535E545E55FE30E94000DD7
:1012D0006B017C016093CF017093D0018093D101A9
:1012E0009093D201012B09F081C0C11139C020E0D7
:1012F00030E040EA50E40E94580E20E030E040EC3C
:1013000051E40E94530E181614F461E001C060E02D
:101310008AE00E94DA0263E08CE00E94ED0361E65D
:1013200071E08AE792E00E946D0520E030E040EA3B
:1013300050E46091CF017091D0018091D1019091E2
:10134000D2010E94580E0E94660566E471E08DEDA0
:1013500091E00E946D0520E030E040EA50E43BC09F
:10136000C13009F09DC020E030E040EA50EC0E941E
:10137000580E20E030E040EC51EC0E94FB0C87FF5F
:1013800002C061E001C060E08AE00E94DA0263E02E
:101390008CE00E94ED0366E671E08AE792E00E942D
:1013A0006D0520E030E040EA50EC6091CF01709193
:1013B000D0018091D1019091D2010E94580E0E94DB
:1013C000660566E471E08DED91E00E946D0520E018
:1013D00030E040EA50EC6091CF017091D0018091F3
:1013E000D1019091D2010E94580E52C02091CB01A0
:1013F0003091CC014091CD015091CE010E94530E0D
:1014000018160CF04DC0C092CB01D092CC01E092E6
:10141000CD01F092CE0120E030E040EC51E4C70174
:10142000B6010E94530E18160CF069C261E08AE002
:101430000E94DA0263E08CE00E94ED036AE671E04C
:101440008AE792E00E946D0520E030E040EA50E437
:101450006091CB017091CC018091CD019091CE0132
:101460000E94580E23EF34E045EB5FE30E94000D2D
:101470000E94660562E771E08DED91E00E946D05C6
:101480006091CB017091CC018091CD019091CE0102
:101490000E94510564EF71E080E090E00E947F03BC
:1014A00088E00E94B102C82F8093CA018DE00E949B
:1014B000B1028C0182E00E944503BC01990F880BA8
:1014C000990B0E94A30D29EC36E740EA50E40E94F4
:1014D000580E20E030E040E85AE30E94580E25E51F
:1014E00035E545E55FE30E94000D6B017C016093EB
:1014F000C6017093C7018093C8019093C901012B65
:1015000009F081C0C11139C020E030E040EA50E468
:101510000E94580E20E030E040EC51E40E94530E4F
:10152000181614F461E001C060E08BE00E94DA025A
:1015300064E08CE00E94ED036AE771E08AE792E0E4
:101540000E946D0520E030E040EA50E46091C60161
:101550007091C7018091C8019091C9010E94580EF5
:101560000E94660566E471E08DED91E00E946D05D4
:1015700020E030E040EA50E43BC0C13009F09DC0BB
:1015800020E030E040EA50EC0E94580E20E030E0CD
:1015900040EC51EC0E94FB0C87FF02C061E001C0EF
:1015A00060E08BE00E94DA0264E08CE00E94ED03D0
:1015B0006FE771E08AE792E00E946D0520E030E07D
:1015C00040EA50EC6091C6017091C7018091C8015A
:1015D0009091C9010E94580E0E94660566E471E070
:1015E0008DED91E00E946D0520E030E040EA50EC86
:1015F0006091C6017091C7018091C8019091C901A5
:101600000E94580E52C02091C2013091C3014091F6
:10161000C4015091C5010E94530E18160CF04DC024
:10162000C092C201D092C301E092C401F092C50100
:1016300020E030E040EC51E4C701B6010E94530EB7
:1016400018160CF05EC161E08BE00E94DA0264E0E3
:101650008CE00E94ED0363E871E08AE792E00E946B
:101660006D0520E030E040EA50E46091C2017091E5
:10167000C3018091C4019091C5010E94580E23EFCF
:1016800034E045EB5FE30E94000D0E9466056BE8C5
:1016900071E08DED91E00E946D056091C201709145
:1016A000C3018091C4019091C5010E94510564EF6E
:1016B00071E080E090E00E947F0380E00E94B10230
:1016C000C82F8093C1018DE00E94B1028C0180E09F
:1016D0000E944503BC01990F880B990B0E94A30D32
:1016E00029EC36E740EA50E40E94580E20E030E052
:1016F00040E85AE30E94580E25E535E545E55FE3ED
:101700000E94000D6B017C016093BD017093BE01CE
:101710008093BF019093C001012B09F081C0C111DA
:1017200039C020E030E040EA50E40E94580E20E04A
:1017300030E040EC51E40E94530E181614F461E0BE
:1017400001C060E08CE00E94DA0265E08CE00E945B
:10175000ED0363E971E08AE792E00E946D0520E005
:1017600030E040EA50E46091BD017091BE0180918B
:10177000BF019091C0010E94580E0E94660566E468
:1017800071E08DED91E00E946D0520E030E040EACF
:1017900050E43BC0C13009F09DC020E030E040EA99
:1017A00050EC0E94580E20E030E040EC51EC0E94DA
:1017B000FB0C87FF02C061E001C060E08CE00E948A
:1017C000DA0265E08CE00E94ED0368E971E08AE7E7
:1017D00092E00E946D0520E030E040EA50EC60911C
:1017E000BD017091BE018091BF019091C0010E9426
:1017F000580E0E94660566E471E08DED91E00E944E
:101800006D0520E030E040EA50EC6091BD01709140
:10181000BE018091BF019091C0010E94580E52C03C
:101820002091B9013091BA014091BB015091BC01A6
:101830000E94530E18160CF04DC0C092B901D09200
:10184000BA01E092BB01F092BC0120E030E040EC34
:1018500051E4C701B6010E94530E18160CF053C094
:1018600061E08CE00E94DA0265E08CE00E94ED030A
:101870006CE971E08AE792E00E946D0520E030E0BB
:1018800040EA50E46091B9017091BA018091BB01C6
:101890009091BC010E94580E23EF34E045EB5FE3CA
:1018A0000E94000D0E94660564EA71E08DED91E0F2
:1018B0000E946D056091B9017091BA018091BB01E0
:1018C0009091BC010E94510564EF71E080E090E0CE
:1018D0000E947F036CEA71E08DED91E00E946D053E
:1018E0006091D8017091D9018091DA019091DB016A
:1018F0000E9451050E947E02B9CB60E08BCC60E073
:1019000096CD60E0A1CE60E0ACCFFB01DC0102C06F
:1019100005900D9241505040D8F708955058BB277C
:10192000AA270E94A60C0C94190E0E940B0E38F0E8
:101930000E94120E20F039F49F3F19F426F40C9403
:10194000080E0EF4E095E7FB0C94020EE92F0E94BE
:101950002A0E58F3BA17620773078407950720F019
:1019600079F4A6F50C944C0E0EF4E0950B2EBA2FDC
:10197000A02D0B01B90190010C01CA01A001112495
:10198000FF27591B99F0593F50F4503E68F11A1641
:10199000F040A22F232F342F4427585FF3CF4695D2
:1019A00037952795A795F0405395C9F77EF41F16F4
:1019B000BA0B620B730B840BBAF09150A1F0FF0FBE
:1019C000BB1F661F771F881FC2F70EC0BA0F621FAA
:1019D000731F841F48F4879577956795B795F7959A
:1019E0009E3F08F0B0CF9395880F08F09927EE0F2F
:1019F0009795879508950E94DE0D08F481E008957B
:101A00000E94140D0C94190E0E94120E58F00E94A0
:101A10000B0E40F029F45F3F29F00C94020E511197
:101A20000C944D0E0C94080E0E942A0E68F3992314
:101A3000B1F3552391F3951B550BBB27AA276217CA
:101A40007307840738F09F5F5F4F220F331F441FD7
:101A5000AA1FA9F335D00E2E3AF0E0E832D091500B
:101A60005040E695001CCAF72BD0FE2F29D0660FF8
:101A7000771F881FBB1F261737074807AB07B0E83B
:101A800009F0BB0B802DBF01FF2793585F4F3AF041
:101A90009E3F510578F00C94020E0C944D0E5F3F62
:101AA000E4F3983ED4F3869577956795B795F795C7
:101AB0009F5FC9F7880F911D9695879597F90895AF
:101AC000E1E0660F771F881FBB1F6217730784074B
:101AD000BA0720F0621B730B840BBA0BEE1F88F75A
:101AE000E09508950E94320E88F09F5798F0B92F24
:101AF0009927B751B0F0E1F0660F771F881F991F43
:101B00001AF0BA95C9F714C0B13091F00E944C0E8A
:101B1000B1E008950C944C0E672F782F8827B85F9A
:101B200039F0B93FCCF3869577956795B395D9F79A
:101B30003EF490958095709561957F4F8F4F9F4FA4
:101B40000895E89409C097FB3EF4909580957095B0
:101B500061957F4F8F4F9F4F9923A9F0F92F96E9F9
:101B6000BB279395F695879577956795B795F1116E
:101B7000F8CFFAF4BB0F11F460FF1BC06F5F7F4F0B
:101B80008F4F9F4F16C0882311F096E911C077231D
:101B900021F09EE8872F762F05C0662371F096E826
:101BA000862F70E060E02AF09A95660F771F881FF5
:101BB000DAF7880F9695879597F90895990F000899
:101BC000550FAA0BE0E8FEEF16161706E807F9070F
:101BD000C0F012161306E407F50798F0621B730BAA
:101BE000840B950B39F40A2661F0232B242B252B2B
:101BF00021F408950A2609F4A140A6958FEF811DCE
:101C0000811D089597F99F6780E870E060E008956E
:101C10009FEF80EC089500240A9416161706180604
:101C20000906089500240A941216130614060506E0
:101C30000895092E0394000C11F4882352F0BB0F71
:101C400040F4BF2B11F460FF04C06F5F7F4F8F4FD4
:101C50009F4F089557FD9058440F551F59F05F3F0F
:101C600071F04795880F97FB991F61F09F3F79F0BE
:101C700087950895121613061406551FF2CF469540
:101C8000F1DF08C0161617061806991FF1CF8695C2
:101C90007105610508940895E894BB2766277727A6
:101CA000CB0197F908950E94DE0D08F48FEF089597
:101CB0000E946B0E0C94190E0E940B0E38F00E94BD
:101CC000120E20F0952311F00C94020E0C94080EC5
:101CD00011240C944D0E0E942A0E70F3959FC1F3AF
:101CE000950F50E0551F629FF001729FBB27F00DCA
:101CF000B11D639FAA27F00DB11DAA1F649F66271F
:101D0000B00DA11D661F829F2227B00DA11D621F6D
:101D1000739FB00DA11D621F839FA00D611D221F27
:101D2000749F3327A00D611D231F849F600D211D0B
:101D3000822F762F6A2F11249F5750409AF0F1F08E
:101D400088234AF0EE0FFF1FBB1F661F771F881FF7
:101D500091505040A9F79E3F510580F00C94020E1F
:101D60000C944D0E5F3FE4F3983ED4F3869577953F
:101D70006795B795F795E7959F5FC1F7FE2B880F9D
:101D8000911D9695879597F908950E94DE0D880B11
:101D9000990B0895991B79E004C0991F961708F0D4
:101DA000961B881F7A95C9F78095089597FB072E93
:101DB00016F4009407D077FD09D00E940C0F07FCA1
:101DC00005D03EF4909581959F4F0895709561954B
:101DD0007F4F0895A1E21A2EAA1BBB1BFD010DC067
:101DE000AA1FBB1FEE1FFF1FA217B307E407F507CB
:101DF00020F0A21BB30BE40BF50B661F771F881FA7
:101E0000991F1A9469F760957095809590959B013C
:101E1000AC01BD01CF010895AA1BBB1B51E107C056
:101E2000AA1FBB1FA617B70710F0A61BB70B881F6A
:101E3000991F5A95A9F780959095BC01CD010895F9
:101E4000EE0FFF1F0590F491E02D099481E090E0E2
:0A1E5000F8940C942B0FF894FFCFC8
:101E5A00000000000F027C01A6015C02D701B50157
:101E6A00C901000000006F057C01BA03B9036E6165
:101E7A006E00696E66006F7666000D0A00566F6C1A
:101E8A00746D657465720034206368616E6E656C8A
:101E9A000056313D2000566463313A200056312005
:101EAA0000563120524D533A0056726D73313A2022
:101EBA000056323D200056322000563220524D53F1
:101ECA003A0056726D73323A200056333D2000565E
:101EDA00332000563320524D533A0056726D7333F5
:101EEA003A200056343D2000563420005634205201
:101EFA004D533A0056726D73343A2000563A200018
:00000001FF
