:100000000C9452010C947A010C947A010C947A01AC
:100010000C947A010C947A010C947A010C947A0174
:100020000C947A010C947A010C947A010C947A0164
:100030000C947A010C947A010C947A010C947A0154
:100040000C94E1050C947A010C9451060C942B0647
:100050000C947A010C947A010C947A010C947A0134
:100060000C947A010C947A01000000000000005FFB
:1000700000000007000700147F147F14242A7F2A41
:10008000122313086462364955225000050300000C
:10009000001C2241000041221C0014083E081408E4
:1000A000083E0808005030000008080808080060F2
:1000B00060000020100804023E5149453E00427F86
:1000C000400042615149462141454B311814127F8D
:1000D0001027454545393C4A494930017109050316
:1000E0003649494936064949291E0036360000007E
:1000F0005636000008142241001414141414004150
:100100002214080201510906324979413E7E11113B
:10011000117E7F494949363E414141227F4141227A
:100120001C7F494949417F090909013E4149497AF2
:100130007F0808087F00417F41002040413F017F48
:10014000081422417F404040407F020C027F7F0420
:1001500008107F3E4141413E7F090909063E415159
:10016000215E7F09192946464949493101017F012C
:10017000013F4040403F1F2040201F3F4038403F4C
:100180006314081463070870080761514945430068
:100190007F41410002040810200041417F00040219
:1001A0000102044040404040000102040020545439
:1001B00054787F48444438384444442038444448C0
:1001C0007F3854545418087E0901020C5252523E92
:1001D0007F0804047800447D40002040443D007FB7
:1001E0001028440000417F40007C041804787C08FB
:1001F00004047838444444387C1414140808141453
:10020000187C7C080404084854545420043F44409B
:10021000203C4040207C1C2040201C3C4030403C86
:1002200044281028440C5050503C4464544C440022
:100230000836410000007F00000041360800100829
:100240000810080000000000000000002400270043
:100250002A0000000000250028002B0000000000FC
:1002600023002600290004040404040404040202F8
:100270000202020203030303030301020408102025
:100280004080010204081020010204081020000030
:100290000008000201000003040700000000000045
:1002A0000000830611241FBECFEFD8E0DEBFCDBF14
:1002B00011E0A0E0B1E0EEEDFEE102C005900D928C
:1002C000A23AB107D9F722E0A2EAB1E001C01D923B
:1002D000AB3BB207E1F711E0C2E5D1E004C02197E2
:1002E000FE010E94670FC135D107C9F70E94C306FE
:1002F0000C946D0F0C940000833081F028F4813051
:1003000099F08230A9F008958730A9F08830C9F0BB
:100310008430B1F4809180008F7D03C08091800093
:100320008F7780938000089584B58F7784BD08957A
:1003300084B58F7DFBCF8091B0008F778093B00024
:1003400008958091B0008F7DF9CFCF93DF93282F50
:1003500030E0F901E257FD4F8491F901E658FD4F75
:10036000D491F901EA59FD4FC491CC23A1F0811138
:100370000E947C01EC2FF0E0EE0FFF1FE45AFD4FCE
:10038000A591B491EC91ED2381E090E009F480E037
:10039000DF91CF91089580E090E0FACF1F93CF9343
:1003A000DF93282F30E0F901E257FD4F8491F901E6
:1003B000E658FD4FD491F901EA59FD4FC491CC2381
:1003C000A9F0162F81110E947C01EC2FF0E0EE0FB6
:1003D000FF1FEE5AFD4FA591B4918FB7F894EC91A1
:1003E000111108C0D095DE23DC938FBFDF91CF9130
:1003F0001F910895DE2BF8CFCF93DF9390E0FC019F
:10040000E658FD4F24918A599D4FFC018491882321
:10041000D1F090E0880F991FFC01E85BFD4FA5919A
:10042000B491FC01EE5AFD4FC591D49161110EC0FB
:100430009FB7F8948C91E22FE0958E238C932881BE
:10044000E223E8839FBFDF91CF9108958FB7F8949F
:10045000EC91E22BEC938FBFF6CF8E3008F08E50EC
:100460008770806480937C0080917A0080648093A0
:100470007A0080917A0086FDFCCF8091780090917F
:10048000790008953FB7F8948091CB019091CC0109
:10049000A091CD01B091CE0126B5A89B05C02F3FFC
:1004A00019F00196A11DB11D3FBFBA2FA92F982F9A
:1004B0008827BC01CD01620F711D811D911D42E095
:1004C000660F771F881F991F4A95D1F708958F925D
:1004D0009F92AF92BF92CF92DF92EF92FF924B0129
:1004E0005C010E9442026B017C010E9442026C1975
:1004F0007D098E099F09683E734081059105A8F327
:1005000021E0821A9108A108B10888EEC80E83E0A4
:10051000D81EE11CF11C81149104A104B10429F737
:10052000FF90EF90DF90CF90BF90AF909F908F9013
:100530000895AF92BF92CF92DF92EF92FF920F9306
:100540001F93CF93DF936C017B018B01040F151F69
:10055000EB015E01AE18BF08C017D10759F06991D1
:10056000D601ED91FC910190F081E02DC601099535
:10057000892B79F7C501DF91CF911F910F91FF90E2
:10058000EF90DF90CF90BF90AF900895FC01538D16
:10059000448D252F30E0842F90E0821B930B54175D
:1005A00010F0CF96089501970895FC01918D828DEA
:1005B000981761F0A28DAE0FBF2FB11D5D968C9183
:1005C000928D9F5F9F73928F90E008958FEF9FEFC2
:1005D0000895FC01918D828D981731F0828DE80F7E
:1005E000F11D858D90E008958FEF9FEF0895FC0138
:1005F000918D228D892F90E0805C9F4F821B910905
:100600008F73992708958FEC91E00E94F70221E003
:10061000892B09F420E0822F089580E090E0892B57
:1006200029F00E94030381110C9400000895FC013D
:10063000A48DA80FB92FB11DA35ABF4F2C91848D43
:1006400090E001968F739927848FA689B7892C93A0
:10065000A089B1898C91837080648C93938D848DF3
:10066000981306C00288F389E02D80818F7D8083F6
:100670000895EF92FF920F931F93CF93DF93EC01B6
:1006800081E0888F9B8D8C8D98131AC0E889F98939
:10069000808185FF15C09FB7F894EE89FF8960833C
:1006A000E889F98980818370806480839FBF81E0BD
:1006B00090E0DF91CF911F910F91FF90EF900895FF
:1006C000F62E0B8D10E00F5F1F4F0F731127E02EDA
:1006D0008C8D8E110CC00FB607FCFACFE889F98912
:1006E000808185FFF5CFCE010E941703F1CFEB8DFE
:1006F000EC0FFD2FF11DE35AFF4FF0829FB7F894E6
:100700000B8FEA89FB8980818062CFCFCF93DF9303
:10071000EC01888D8823B9F0AA89BB89E889F98919
:100720008C9185FD03C0808186FD0DC00FB607FC4E
:10073000F7CF8C9185FFF2CF808185FFEDCFCE0181
:100740000E941703E9CFDF91CF910895089590E0BB
:1007500080E00895FB0101900020E9F73197AF0197
:10076000461B570BDC01ED91FC910280F381E02DDB
:1007700009948F929F92AF92BF92EF92FF920F9344
:100780001F93CF93DF93CDB7DEB7A1970FB6F89441
:10079000DEBF0FBECDBF7C01FA01CB0119A2223012
:1007A00008F42AE08E010F5D1F4F822E912CB12C90
:1007B000A12CBF01A50194010E94310FF901CA01CA
:1007C0006A300CF5605DD8016E938D01232B242BCC
:1007D000252B79F790E080E0109721F0BD01C7014B
:1007E0000E94AA03A1960FB6F894DEBF0FBECDBF3C
:1007F000DF91CF911F910F91FF90EF90BF90AF903D
:100800009F908F900895695CDECF0C94AA032F927D
:100810003F924F925F926F927F928F929F92AF9290
:10082000BF92CF92DF92EF92FF921F93CF93DF930D
:10083000EC016A017B01722EAB019601CB01B6017E
:100840000E940C0F6EE171E0811126C04601570134
:10085000E894B7F82FEF3FEF4FE75FE7C501B4012A
:100860000E940C0F81110CC02FEF3FEF4FE75FE7A5
:10087000C501B4010E94420D62E271E0181664F0F5
:100880002FEF3FEF4FE75FE4C701B6010E949A0EDA
:100890001816B4F466E271E0CE01DF91CF911F919A
:1008A000FF90EF90DF90CF90BF90AF909F908F9090
:1008B0007F906F905F904F903F902F900C94AA0381
:1008C0002FEF3FEF4FE75FECC701B6010E94420DEB
:1008D00087FDE0CF20E030E0A901C701B6010E940A
:1008E000420D312C212C87FF0DC0E881F981019048
:1008F000F081E02D6DE2CE0109951C01F7FAF0942C
:10090000F7F8F09410E060E070E080E09FE371168B
:1009100041F020E030E040E251E40E94470D1F5FCB
:10092000F6CFA70196010E94D60C2B013C010E9434
:10093000B90D4B015C012AE0BC01A401CE010E946B
:10094000B9037C01E20CF31C1123E1F1C501B401F0
:100950000E94E80D9B01AC01C301B2010E94D50CBD
:100960004B015C01E881F9810190F081E02D6EE29C
:10097000CE010995E80EF91E115020F120E030E07B
:1009800040E251E4C501B4010E949F0E2B013C01DD
:100990000E94B90D4B01B12CA12C2AE0B501A40194
:1009A000CE010E94B903E80EF91EC501B4010E94F0
:1009B000E80D9B01AC01C301B2010E94D50C4B01B3
:1009C0005C01DACFC701DF91CF911F91FF90EF90CB
:1009D000DF90CF90BF90AF909F908F907F906F905F
:1009E0005F904F903F902F900895CF93DF93AB018E
:1009F000BC0122E08FEC91E00E940704EC016AE266
:100A000071E08FEC91E00E94AA038C0F9D1FDF9193
:100A1000CF910895AB01BC0122E08CE692E00C94EA
:100A20000704EF92FF920F931F93CF93DF93EC0194
:100A3000042F8E810E94CE0160E088850E94CE0145
:100A4000FC80ED8018E0602F661F6627661F8E2DE4
:100A50000E94CE01000F61E08F2D0E94CE0160E068
:100A60008F2D0E94CE01115071F761E08885DF91D2
:100A7000CF911F910F91FF90EF900C94CE01CF93E7
:100A8000DF93262FCCE6D2E06A850E94110F492F12
:100A90009C87822F90E06B8529E3629F612D112452
:100AA000669570E06F5F7F4F0E941D0F8D874068D5
:100AB00060E0CE010E9411054D85406460E0CE01EA
:100AC000DF91CF910C941105CF92DF92EF92FF92BC
:100AD0000F931F93CF93DF9300D000D01F92CDB719
:100AE000DEB767FD6BC07C01862F90E0603208F4B2
:100AF00055C0809725E0289FB001299F700D1124D3
:100B000068597F4F45E050E0CE0101960E94CC0C21
:100B10008E010F5F1F4F680185E0C80ED11CF801E0
:100B200041918F01F70186858111409561E0C701F0
:100B30000E9411050C151D0591F7F7014685419599
:100B400061E0C7010E941105F701848590E00696D7
:100B5000628570E00E941D0F8487892B79F485855A
:100B600090E00196638529E3629F612D11246695CB
:100B700070E06F5F7F4F0E941D0F858781E090E0DE
:100B80000F900F900F900F900F90DF91CF911F91CA
:100B90000F91FF90EF90DF90CF900895880F991FED
:100BA000F701E80FF91F078510890115110509F0F4
:100BB000B2CF45E050E068E670E0A6CF90E080E07C
:100BC000DFCF1F920F920FB60F9211242F933F93F6
:100BD0008F939F93AF93BF938091C7019091C8016A
:100BE000A091C901B091CA013091C60123E0230F41
:100BF0002D3758F50196A11DB11D2093C601809394
:100C0000C7019093C801A093C901B093CA01809114
:100C1000CB019091CC01A091CD01B091CE01019674
:100C2000A11DB11D8093CB019093CC01A093CD0168
:100C3000B093CE01BF91AF919F918F913F912F9132
:100C40000F900FBE0F901F90189526E8230F029665
:100C5000A11DB11DD2CF1F920F920FB60F9211247A
:100C60002F933F934F935F936F937F938F939F93B4
:100C7000AF93BF93EF93FF938FEC91E00E94170324
:100C8000FF91EF91BF91AF919F918F917F916F9164
:100C90005F914F913F912F910F900FBE0F901F903A
:100CA00018951F920F920FB60F9211242F938F93C6
:100CB0009F93EF93FF93E091DF01F091E00180813A
:100CC000E091E501F091E60182FD1BC090818091E9
:100CD000E8018F5F8F732091E901821741F0E09165
:100CE000E801F0E0E153FE4F958F8093E801FF911A
:100CF000EF919F918F912F910F900FBE0F901F90AA
:100D000018958081F4CFEFECF1E01382128288EE27
:100D100093E0A0E0B0E084839583A683B78384E06A
:100D200091E09183808385EC90E09587848784ECC3
:100D300090E09787868780EC90E0918B808B81ECA8
:100D400090E0938B828B82EC90E0958B848B86EC89
:100D500090E0978B868B118E128E138E148EECE69C
:100D6000F2E01382128286E191E09183808383E036
:100D7000848384E0858385E0868386E0878387E0BB
:100D8000808716860895789484B5826084BD84B582
:100D9000816084BD85B5826085BD85B5816085BD76
:100DA00080916E00816080936E001092810080912E
:100DB00081008260809381008091810081608093B6
:100DC0008100809180008160809380008091B100DB
:100DD00084608093B1008091B00081608093B00006
:100DE00080917A00846080937A0080917A0082609A
:100DF00080937A0080917A00816080937A0080915C
:100E00007A00806880937A001092C100E091DF013F
:100E1000F091E00182E08083E091DB01F091DC0160
:100E20001082E091DD01F091DE018FEC8083109261
:100E3000E701E091E301F091E40186E08083E09135
:100E4000E101F091E201808180618083E091E10124
:100E5000F091E201808188608083E091E101F0916E
:100E6000E201808180688083E091E101F091E201FC
:100E700080818F7D808360E085E00E94FC0160E0DE
:100E800084E00E94FC0160E082E00E94FC0160E0DE
:100E900080E00E94FC0160E08DE00E94FC0160E0C7
:100EA00082E00E94FC0160E081E00E94FC0160E0C1
:100EB00088E00E94FC0160E080E00E94FC0184E583
:100EC0008093760280E380937702109275021092ED
:100ED000780210927902EBE7F2E080E4DF011D92E4
:100EE0008A95E9F761E0809170020E94FC0161E05F
:100EF000809171020E94FC0161E0809172020E9467
:100F0000FC0161E0809173020E94FC0161E080912C
:100F100074020E94FC0161E0809173020E94CE0184
:100F200061E0809174020E94CE0160E080917302C2
:100F30000E94CE0164E670E080E090E00E946702CB
:100F400061E0809173020E94CE0141E260E08CE694
:100F500092E00E94110543E160E08CE692E00E947D
:100F600011058091750242EC813039F440EE60E069
:100F70008CE692E00E94110545E060E08CE692E08C
:100F80000E94110540E260E08CE692E00E941105AB
:100F900049E060E08CE692E00E94110560E080E0AC
:100FA0000E943F05D0E0C0E080917702869586954B
:100FB000869590917602899FC0011124C817D907A0
:100FC00040F440E061E08CE692E00E941105219639
:100FD000EBCF60E080E00E943F0548E060E08CE6F7
:100FE00092E00E9411054CE060E08CE692E00E94E5
:100FF000110564E670E080E090E00E94670240E83E
:1010000060E08CE692E00E94110540E460E08CE62E
:1010100092E00E9411056DE271E08CE692E00E9480
:10102000050461E08FE00E943F0567E371E08CE614
:1010300092E00E94050461E089E00E94FC0161E009
:101040008AE00E94FC0161E08BE00E94FC0161E00B
:101050008CE00E94FC01C0E0D0E082E00E94A5018B
:10106000182F8093C5018DE00E94A5015C0185E0E9
:101070000E942D02BC01990F880B990B0E94EA0D6A
:1010800029EC36E740EA50E40E949F0E20E030E071
:1010900040E85AE30E949F0E25E535E545E55FE30C
:1010A0000E94470D6B017C01C092C101D092C20128
:1010B000E092C301F092C401AB2809F0B5C211114E
:1010C000CBC120E030E040EA50E40E949F0E20E0D7
:1010D00030E040EC51E40E949A0E61E018160CF0EA
:1010E00060E089E00E94CE0162E08CE00E943F0552
:1010F00061E471E08CE692E00E94050420E030E0BB
:1011000040EA50E46091C1017091C2018091C30135
:101110009091C4010E949F0E0E940A0566E471E04E
:101120008FEC91E00E94050420E030E040EA50E4BA
:101130006091C1017091C2018091C3019091C4017D
:101140000E949F0E0E94F50464EF71E080E090E041
:101150000E94670281E00E94A501182F8093BC01C4
:101160008DE00E94A5015C0184E00E942D02BC017B
:10117000990F880B990B0E94EA0D29EC36E740EA9B
:1011800050E40E949F0E20E030E040E85AE30E94C5
:101190009F0E25E535E545E55FE30E94470D6B01B0
:1011A0007C01C092B801D092B901E092BA01F092EC
:1011B000BB01AB2809F088C2111188C120E030E0E2
:1011C00040EA50E40E949F0E20E030E040EC51E401
:1011D0000E949A0E61E018160CF060E08AE00E940E
:1011E000CE0163E08CE00E943F0562E571E08CE691
:1011F00092E00E94050420E030E040EA50E4609173
:10120000B8017091B9018091BA019091BB010E941F
:101210009F0E0E940A0567E571E08FEC91E00E9445
:10122000050420E030E040EA50E46091B80170919C
:10123000B9018091BA019091BB010E949F0E0E945A
:10124000F50464EF71E080E090E00E94670288E0BE
:101250000E94A501182F8093B3018DE00E94A50183
:101260005C0182E00E942D02BC01990F880B990B52
:101270000E94EA0D29EC36E740EA50E40E949F0EF6
:1012800020E030E040E85AE30E949F0E25E535E576
:1012900045E55FE30E94470D6B017C01C092AF0101
:1012A000D092B001E092B101F092B201AB2809F006
:1012B0005CC2111145C120E030E040EA50E40E94D8
:1012C0009F0E20E030E040EC51E40E949A0E61E075
:1012D00018160CF060E08BE00E94CE0164E08CE018
:1012E0000E943F0563E671E08CE692E00E940504EF
:1012F00020E030E040EA50E46091AF017091B0012D
:101300008091B1019091B2010E949F0E0E940A0546
:1013100068E671E08FEC91E00E94050420E030E087
:1013200040EA50E46091AF017091B0018091B10149
:101330009091B2010E949F0E0E94F50464EF71E04B
:1013400080E090E00E94670280E00E94A501182FD3
:101350008093AA018DE00E94A5015C0180E00E94BB
:101360002D02BC01990F880B990B0E94EA0D29EC04
:1013700036E740EA50E40E949F0E20E030E040E86B
:101380005AE30E949F0E25E535E545E55FE30E949F
:10139000470D6B017C01C092A601D092A701E0929B
:1013A000A801F092A901AB2809F030C2111102C1C5
:1013B00020E030E040EA50E40E949F0E20E030E060
:1013C00040EC51E40E949A0E61E018160CF060E0C7
:1013D0008CE00E94CE0165E08CE00E943F0564E74E
:1013E00071E08CE692E00E94050420E030E040EAE3
:1013F00050E46091A6017091A7018091A80190919D
:10140000A9010E949F0E0E940A0569E771E08FEC16
:1014100091E00E94050420E030E040EA50E4609151
:10142000A6017091A7018091A8019091A9010E9445
:101430009F0E0E94F50464EF71E080E090E00E944E
:101440006702209709F409CE0E940303882309F458
:1014500004CE0E94000001CE113009F07BCE20E0C6
:1014600030E040EA50EC0E949F0E20E030E040EC7B
:1014700051EC0E94420D61E087FF60E089E00E942C
:10148000CE0162E08CE00E943F0566E471E08CE6EC
:1014900092E00E94050420E030E040EA50EC6091C8
:1014A000C1017091C2018091C3019091C4010E9459
:1014B0009F0E0E940A0566E471E08FEC91E00E94A5
:1014C000050420E030E040EA50EC32CE113009F063
:1014D000BECE20E030E040EA50EC0E949F0E20E0BB
:1014E00030E040EC51EC0E94420D61E087FF60E08B
:1014F0008AE00E94CE0163E08CE00E943F0567E530
:1015000071E08CE692E00E94050420E030E040EAC1
:1015100050EC6091B8017091B9018091BA0190913D
:10152000BB010E949F0E0E940A0567E571E08FECE7
:1015300091E00E94050420E030E040EA50EC75CED6
:10154000113009F001CF20E030E040EA50EC0E9479
:101550009F0E20E030E040EC51EC0E94420D61E033
:1015600087FF60E08BE00E94CE0164E08CE00E9487
:101570003F0568E671E08CE692E00E94050420E0F9
:1015800030E040EA50EC6091AF017091B001809181
:10159000B1019091B2010E949F0E0E940A0568E677
:1015A00071E08FEC91E00E94050420E030E040EA19
:1015B00050ECB8CE113009F044CF20E030E040EAE2
:1015C00050EC0E949F0E20E030E040EC51EC0E9475
:1015D000420D61E087FF60E08CE00E94CE0165E093
:1015E0008CE00E943F0569E771E08CE692E00E9482
:1015F000050420E030E040EA50EC6091A6017091D3
:10160000A7018091A8019091A9010E949F0E0E94BC
:101610000A0569E771E08FEC91E00E94050420E083
:1016200030E040EA50ECFBCE2091BD013091BE018C
:101630004091BF015091C0010E949A0E18161CF5EE
:10164000C092BD01D092BE01E092BF01F092C001F4
:1016500020E030E040EA50E4C701B6010E949F0E4E
:1016600021E834E045E35FE30E949F0E20E030E094
:1016700048E851E40E949A0E61E018160CF060E010
:1016800089E00E94CE0162E08CE00E943F056AE49E
:1016900071E08CE692E00E94050420E030E040EA30
:1016A00050E46091BD017091BE018091BF019091A5
:1016B000C0010E949F0E21E834E045E35FE30E94F1
:1016C0009F0E0E940A0546CD2091B4013091B501CC
:1016D0004091B6015091B7010E949A0E18160CF075
:1016E000B6CDC092B401D092B501E092B601F092AD
:1016F000B70120E030E040EA50E4C701B6010E94A3
:101700009F0E21E834E045E35FE30E949F0E20E056
:1017100030E048E851E40E949A0E61E018160CF09F
:1017200060E08AE00E94CE0163E08CE00E943F0509
:101730006BE571E08CE692E00E94050420E030E069
:1017400040EA50E46091B4017091B5018091B60116
:101750009091B7010E949F0E21E834E045E35FE3DA
:101760000E949F0E0E940A0572CD2091AB0130911C
:10177000AC014091AD015091AE010E949A0E181635
:101780000CF0E2CDC092AB01D092AC01E092AD0181
:10179000F092AE0120E030E040EA50E4C701B6012B
:1017A0000E949F0E21E834E045E35FE30E949F0E14
:1017B00020E030E048E851E40E949A0E61E01816FB
:1017C0000CF060E08BE00E94CE0164E08CE00E94AF
:1017D0003F056CE671E08CE692E00E94050420E093
:1017E00030E040EA50E46091AB017091AC0180912F
:1017F000AD019091AE010E949F0E21E834E045E3D7
:101800005FE30E949F0E0E940A059ECD2091A201D7
:101810003091A3014091A4015091A5010E949A0E1C
:1018200018164CF5C092A201D092A301E092A40137
:10183000F092A50120E030E040EA50E4C701B60193
:101840000E949F0E21E834E045E35FE30E949F0E73
:1018500020E030E048E851E40E949A0E61E018165A
:101860000CF060E08CE00E94CE0164EF71E080E05B
:1018700090E00E94670265E08CE00E943F056DE702
:1018800071E08CE692E00E94050420E030E040EA3E
:1018900050E46091A2017091A3018091A401909104
:1018A000A5010E949F0E21E834E045E35FE30E941A
:1018B0009F0E0E940A0565E871E08FEC91E00E949E
:1018C000050420E030E040EA50E46091BD017091F1
:1018D000BE018091BF019091C0010E949F0E23EF35
:1018E00034E045EB5FE30E94470D0E94F5046CE88D
:1018F00071E08FEC91E00E94050420E030E040EAC6
:1019000050E46091B4017091B5018091B60190915D
:10191000B7010E949F0E21E834E045E35FE30E9497
:101920009F0E0E94F50463E971E08FEC91E00E9444
:10193000050420E030E040EA50E46091AB01709192
:10194000AC018091AD019091AE010E949F0E21E803
:1019500034E045E35FE30E949F0E0E94F5046AE9CC
:1019600071E08FEC91E00E94050420E030E040EA55
:1019700050E46091A2017091A3018091A401909123
:10198000A5010E949F0E21E834E045E35FE30E9439
:101990009F0E0E94F50455CDFB01DC0102C00590AD
:1019A0000D9241505040D8F708955058BB27AA27B0
:1019B0000E94ED0C0C94600E0E94520E38F00E94B2
:1019C000590E20F039F49F3F19F426F40C944F0E71
:1019D0000EF4E095E7FB0C94490EE92F0E94710E7E
:1019E00058F3BA17620773078407950720F079F454
:1019F000A6F50C94930E0EF4E0950B2EBA2FA02DA5
:101A00000B01B90190010C01CA01A0011124FF27AB
:101A1000591B99F0593F50F4503E68F11A16F040A6
:101A2000A22F232F342F4427585FF3CF46953795A5
:101A30002795A795F0405395C9F77EF41F16BA0B6A
:101A4000620B730B840BBAF09150A1F0FF0FBB1F18
:101A5000661F771F881FC2F70EC0BA0F621F731F61
:101A6000841F48F4879577956795B795F7959E3FBE
:101A700008F0B0CF9395880F08F09927EE0F97954F
:101A8000879508950E94250E08F481E008950E942C
:101A90005B0D0C94600E0E94590E58F00E94520E7D
:101AA00040F029F45F3F29F00C94490E51110C9439
:101AB000940E0C944F0E0E94710E68F39923B1F3AB
:101AC000552391F3951B550BBB27AA276217730764
:101AD000840738F09F5F5F4F220F331F441FAA1FF8
:101AE000A9F335D00E2E3AF0E0E832D091505040B4
:101AF000E695001CCAF72BD0FE2F29D0660F771F62
:101B0000881FBB1F261737074807AB07B0E809F047
:101B1000BB0B802DBF01FF2793585F4F3AF09E3FCC
:101B2000510578F00C94490E0C94940E5F3FE4F349
:101B3000983ED4F3869577956795B795F7959F5F0F
:101B4000C9F7880F911D9695879597F90895E1E05B
:101B5000660F771F881FBB1F621773078407BA07BA
:101B600020F0621B730B840BBA0BEE1F88F7E09515
:101B700008950E94790E88F09F5798F0B92F992701
:101B8000B751B0F0E1F0660F771F881F991F1AF068
:101B9000BA95C9F714C0B13091F00E94930EB1E02C
:101BA00008950C94930E672F782F8827B85F39F02B
:101BB000B93FCCF3869577956795B395D9F73EF401
:101BC00090958095709561957F4F8F4F9F4F0895A9
:101BD000E89409C097FB3EF49095809570956195C7
:101BE0007F4F8F4F9F4F9923A9F0F92F96E9BB277D
:101BF0009395F695879577956795B795F111F8CFF9
:101C0000FAF4BB0F11F460FF1BC06F5F7F4F8F4F63
:101C10009F4F16C0882311F096E911C0772321F059
:101C20009EE8872F762F05C0662371F096E8862FF1
:101C300070E060E02AF09A95660F771F881FDAF748
:101C4000880F9695879597F90895990F0008550F75
:101C5000AA0BE0E8FEEF16161706E807F907C0F032
:101C600012161306E407F50798F0621B730B840B3A
:101C7000950B39F40A2661F0232B242B252B21F414
:101C800008950A2609F4A140A6958FEF811D811DB4
:101C9000089597F99F6780E870E060E008959FEFEE
:101CA00080EC089500240A941616170618060906F3
:101CB000089500240A9412161306140605060895C2
:101CC000092E0394000C11F4882352F0BB0F40F44A
:101CD000BF2B11F460FF04C06F5F7F4F8F4F9F4F8A
:101CE000089557FD9058440F551F59F05F3F71F00C
:101CF0004795880F97FB991F61F09F3F79F0879573
:101D00000895121613061406551FF2CF4695F1DFFB
:101D100008C0161617061806991FF1CF869571058B
:101D2000610508940895E894BB2766277727CB01BF
:101D300097F908950E94250E08F48FEF08950E94E8
:101D4000B20E0C94600E0E94520E38F00E94590E92
:101D500020F0952311F00C94490E0C944F0E112491
:101D60000C94940E0E94710E70F3959FC1F3950F21
:101D700050E0551F629FF001729FBB27F00DB11D0F
:101D8000639FAA27F00DB11DAA1F649F6627B00D9F
:101D9000A11D661F829F2227B00DA11D621F739F88
:101DA000B00DA11D621F839FA00D611D221F749F96
:101DB0003327A00D611D231F849F600D211D822FDD
:101DC000762F6A2F11249F5750409AF0F1F0882304
:101DD0004AF0EE0FFF1FBB1F661F771F881F915031
:101DE0005040A9F79E3F510580F00C94490E0C9489
:101DF000940E5F3FE4F3983ED4F38695779567950C
:101E0000B795F795E7959F5FC1F7FE2B880F911D5A
:101E10009695879597F908950E94250E880B990B42
:101E20000895991B79E004C0991F961708F0961B36
:101E3000881F7A95C9F78095089597FB072E16F4A9
:101E4000009407D077FD09D00E94530F07FC05D0FE
:101E50003EF4909581959F4F0895709561957F4FC1
:101E60000895A1E21A2EAA1BBB1BFD010DC0AA1FDB
:101E7000BB1FEE1FFF1FA217B307E407F50720F0F3
:101E8000A21BB30BE40BF50B661F771F881F991F6E
:101E90001A9469F760957095809590959B01AC01B7
:101EA000BD01CF010895AA1BBB1B51E107C0AA1FAA
:101EB000BB1FA617B70710F0A61BB70B881F991FEB
:101EC0005A95A9F780959095BC01CD010895EE0F24
:0E1ED000FF1F0590F491E02D0994F894FFCFC8
:101EDE000000000039039902C6028603F702D502FC
:101EEE00E9020000000064059902A703A6036E61D3
:101EFE006E00696E66006F7666000D0A00566F6C96
:101F0E00746D657465720034206368616E6E656C05
:101F1E000056313D200056312000563120524D538F
:101F2E003A0056323D200056322000563220524D95
:101F3E00533A0056333D200056332000563320527C
:101F4E004D533A0056343D2000563420005634206E
:101F5E00524D533A0056726D7331200056726D73A6
:101F6E0032200056726D7333200056726D7334201A
:021F7E00000061
:00000001FF
