:100000000C944D010C9475010C9475010C947501C0
:100010000C9475010C9475010C9475010C94750188
:100020000C9475010C9475010C9475010C94750178
:100030000C9475010C9475010C9475010C94750168
:100040000C943D030C9475010C9475010C9475018E
:100050000C9475010C9475010C9475010C94750148
:100060000C9475010C947501000000000000005F05
:1000700000000007000700147F147F14242A7F2A41
:10008000122313086462364955225000050300000C
:10009000001C2241000041221C0014083E081408E4
:1000A000083E0808005030000008080808080060F2
:1000B00060000020100804023E5149453E00427F86
:1000C000400042615149462141454B311814127F8D
:1000D0001027454545393C4A494930017109050316
:1000E0003649494936064949291E0036360000007E
:1000F0005636000008142241001414141414004150
:100100002214080201510906324979413E7E11113B
:10011000117E7F494949363E414141227F4141227A
:100120001C7F494949417F090909013E4149497AF2
:100130007F0808087F00417F41002040413F017F48
:10014000081422417F404040407F020C027F7F0420
:1001500008107F3E4141413E7F090909063E415159
:10016000215E7F09192946464949493101017F012C
:10017000013F4040403F1F2040201F3F4038403F4C
:100180006314081463070870080761514945430068
:100190007F41410002040810200041417F00040219
:1001A0000102044040404040000102040020545439
:1001B00054787F48444438384444442038444448C0
:1001C0007F3854545418087E0901020C5252523E92
:1001D0007F0804047800447D40002040443D007FB7
:1001E0001028440000417F40007C041804787C08FB
:1001F00004047838444444387C1414140808141453
:10020000187C7C080404084854545420043F44409B
:10021000203C4040207C1C2040201C3C4030403C86
:1002200044281028440C5050503C4464544C440022
:100230000836410000007F00000041360800100829
:100240000810080000000000000000002400270043
:100250002A0000000000250028002B0004040404EC
:100260000404040402020202020203030303030360
:10027000010204081020408001020408102001023D
:100280000408102000000008000201000003040719
:1002900000000000000000007D0411241FBECFEF0D
:1002A000D8E0DEBFCDBF11E0A0E0B1E0E4E9F9E0C5
:1002B00002C005900D92AA31B107D9F721E0AAE159
:1002C000B1E001C01D92A237B207E1F711E0CDE421
:1002D000D1E004C02197FE010E94C204CC34D107B2
:1002E000C9F70E9487030C94C8040C94000090E0A6
:1002F000FC01EC57FD4F2491FC01E059FD4F349176
:10030000FC01E45AFD4FE491EE23C9F0222339F0B9
:10031000233001F1A8F4213019F1223029F1F0E065
:10032000EE0FFF1FEE5AFD4FA591B4918FB7F894D1
:10033000EC91611126C030953E233C938FBF089508
:100340002730A9F02830C9F0243049F78091800087
:100350008F7D03C0809180008F7780938000DFCFF6
:1003600084B58F7784BDDBCF84B58F7DFBCF809143
:10037000B0008F778093B000D2CF8091B0008F7D96
:10038000F9CF3E2BDACFCF93DF9390E0FC01E05919
:10039000FD4F2491845A9D4FFC0184918823D1F014
:1003A00090E0880F991FFC01E85BFD4FA591B49187
:1003B000FC01EE5AFD4FC591D49161110EC09FB75B
:1003C000F8948C91E22FE0958E238C932881E22380
:1003D000E8839FBFDF91CF9108958FB7F894EC9198
:1003E000E22BEC938FBFF6CF3FB7F89480911F01BB
:1003F00090912001A0912101B091220126B5A89BE6
:1004000005C02F3F19F00196A11DB11D3FBFBA2FA6
:10041000A92F982F8827BC01CD01620F711D811D66
:10042000911D42E0660F771F881F991F4A95D1F7EB
:1004300008958F929F92AF92BF92CF92DF92EF92E8
:10044000FF920E94F4014B015C0184E6C82ED12C7E
:10045000E12CF12C0E94F401681979098A099B09A1
:10046000683E734081059105A8F321E0C21AD108C6
:10047000E108F10888EE880E83E0981EA11CB11CEB
:10048000C114D104E104F10429F7FF90EF90DF904B
:10049000CF90BF90AF909F908F900895AF92BF92F2
:1004A000CF92DF92EF92FF920F931F93CF93DF9340
:1004B0006C017B018B01040F151FEB015E01AE186F
:1004C000BF08C017D10759F06991D601ED91FC9191
:1004D0000190F081E02DC6010995892B79F7C501BE
:1004E000DF91CF911F910F91FF90EF90DF90CF9010
:1004F000BF90AF900895089590E080E00895EF9246
:10050000FF920F931F93CF93DF93EC01042F8E8103
:100510000E94770160E088850E947701FC80ED8071
:1005200018E0602F661F6627661F8E2D0E947701D8
:10053000000F61E08F2D0E94770160E08F2D0E94F7
:100540007701115071F761E08885DF91CF911F919C
:100550000F91FF90EF900C947701CF93DF93C3E25C
:10056000D1E01C861D8640E860E0CE010E947F023B
:100570004D85406460E0CE01DF91CF910C947F0205
:10058000CF92DF92EF92FF920F931F93CF93DF935F
:1005900000D000D01F92CDB7DEB767FD6BC07C01E5
:1005A000862F90E0603208F455C0809725E0289FA0
:1005B000B001299F700D112468597F4F45E050E02C
:1005C000CE0101960E9491048E010F5F1F4F6801BA
:1005D00085E0C80ED11CF80141918F01F701868595
:1005E0008111409561E0C7010E947F020C151D0535
:1005F00091F7F7014685419561E0C7010E947F02AE
:10060000F701848590E00696628570E00E949A0466
:100610008487892B79F4858590E00196638529E3A9
:10062000629F612D1124669570E06F5F7F4F0E947D
:100630009A04858781E090E00F900F900F900F90C3
:100640000F90DF91CF911F910F91FF90EF90DF906E
:10065000CF900895880F991FF701E80FF91F0785BC
:1006600010890115110509F0B2CF45E050E068E6A8
:1006700070E0A6CF90E080E0DFCF1F920F920FB620
:100680000F9211242F933F938F939F93AF93BF9318
:1006900080911B0190911C01A0911D01B0911E0140
:1006A00030911A0123E0230F2D3758F50196A11D33
:1006B000B11D20931A0180931B0190931C01A093FC
:1006C0001D01B0931E0180911F0190912001A09106
:1006D0002101B09122010196A11DB11D80931F013E
:1006E00090932001A0932101B0932201BF91AF917B
:1006F0009F918F913F912F910F900FBE0F901F9060
:10070000189526E8230F0296A11DB11DD2CF78942B
:1007100084B5826084BD84B5816084BD85B5826006
:1007200085BD85B5816085BD80916E0081608093B7
:100730006E00109281008091810082608093810020
:100740008091810081608093810080918000816030
:10075000809380008091B10084608093B10080918B
:10076000B00081608093B00080917A0084608093B3
:100770007A0080917A00826080937A0080917A007A
:10078000816080937A0080917A00806880937A00FB
:100790001092C10060E080E00E94C30184E5809374
:1007A0002D0180E380932E0110922C0110922F01D5
:1007B00010923001E2E3F1E080E4DF011D928A95BE
:1007C000E9F761E0809127010E94C30161E0809117
:1007D00028010E94C30161E0809129010E94C301A8
:1007E00061E080912A010E94C30161E080912B01A8
:1007F0000E94C30161E080912A010E94770161E0BB
:1008000080912B010E94770160E080912A010E9473
:1008100077010E94190261E080912A010E9477010C
:1008200041E260E083E291E00E947F0243E160E008
:1008300083E291E00E947F0280912C0142EC8130A2
:1008400039F440EE60E083E291E00E947F0245E0EF
:1008500060E083E291E00E947F0240E260E083E298
:1008600091E00E947F0249E060E083E291E00E9413
:100870007F020E94AD02D0E0C0E080912E018695FB
:100880008695869590912D01899FC0011124C817E6
:10089000D90740F440E061E083E291E00E947F02EA
:1008A0002196EBCF0E94AD0248E060E083E291E048
:1008B0000E947F024CE060E083E291E00E947F02B0
:1008C0000E94190240E860E083E291E00E947F020A
:1008D00040E460E083E291E00E947F024DE050E05E
:1008E0006CE071E083E291E00E944E02C0E0D0E053
:1008F0002097F1F30E940000FBCFE3E2F1E01382C6
:10090000128284E091E09183808383E0848384E099
:10091000858385E0868386E0878387E080871686E7
:100920000895FB01DC0102C005900D92415050403A
:10093000D8F7089597FB072E16F4009407D077FD9B
:1009400009D00E94AE0407FC05D03EF49095819535
:100950009F4F0895709561957F4F0895AA1BBB1B0B
:1009600051E107C0AA1FBB1FA617B70710F0A61BAF
:10097000B70B881F991F5A95A9F780959095BC01D0
:10098000CD010895EE0FFF1F0590F491E02D09941D
:04099000F894FFCF09
:1009940000000000C0024E027C027B024443205649
:0A09A4004F4C54494D4554524F008A
:00000001FF
