:020000040000FA
:100000000C944D010C9475010C9475010C947501C0
:100010000C9475010C9475010C9475010C94750188
:100020000C9475010C9475010C9475010C94750178
:100030000C9475010C9475010C9475010C94750168
:100040000C9481040C9475010C94F1040C94CB0471
:100050000C9475010C9475010C9475010C94750148
:100060000C9475010C947501000000000000005F05
:1000700000000007000700147F147F14242A7F2A41
:10008000122313086462364955225000050300000C
:10009000001C2241000041221C0014083E081408E4
:1000A000083E0808005030000008080808080060F2
:1000B00060000020100804023E5149453E00427F86
:1000C000400042615149462141454B311814127F8D
:1000D0001027454545393C4A494930017109050316
:1000E0003649494936064949291E0036360000007E
:1000F0005636000008142241001414141414004150
:100100002214080201510906324979413E7E11113B
:10011000117E7F494949363E414141227F4141227A
:100120001C7F494949417F090909013E4149497AF2
:100130007F0808087F00417F41002040413F017F48
:10014000081422417F404040407F020C027F7F0420
:1001500008107F3E4141413E7F090909063E415159
:10016000215E7F09192946464949493101017F012C
:10017000013F4040403F1F2040201F3F4038403F4C
:100180006314081463070870080761514945430068
:100190007F41410002040810200041417F00040219
:1001A0000102044040404040000102040020545439
:1001B00054787F48444438384444442038444448C0
:1001C0007F3854545418087E0901020C5252523E92
:1001D0007F0804047800447D40002040443D007FB7
:1001E0001028440000417F40007C041804787C08FB
:1001F00004047838444444387C1414140808141453
:10020000187C7C080404084854545420043F44409B
:10021000203C4040207C1C2040201C3C4030403C86
:1002200044281028440C5050503C4464544C440022
:100230000836410000007F00000041360800100829
:100240000810080000000000000000002400270043
:100250002A0000000000250028002B0004040404EC
:100260000404040402020202020203030303030360
:10027000010204081020408001020408102001023D
:100280000408102000000008000201000003040719
:100290000000000000000000230511241FBECFEF66
:1002A000D8E0DEBFCDBF11E0A0E0B1E0ECEFF4E1BB
:1002B00002C005900D92A834B107D9F722E0A8E456
:1002C000B1E001C01D92A134B207E1F711E0CDE425
:1002D000D1E004C02197FE010E94760ACC34D107F8
:1002E000C9F70E9463050C947C0A0C94000090E00E
:1002F000FC01EC57FD4F2491FC01E059FD4F349176
:10030000FC01E45AFD4FE491EE23C9F0222339F0B9
:10031000233001F1A8F4213019F1223029F1F0E065
:10032000EE0FFF1FEE5AFD4FA591B4918FB7F894D1
:10033000EC91611126C030953E233C938FBF089508
:100340002730A9F02830C9F0243049F78091800087
:100350008F7D03C0809180008F7780938000DFCFF6
:1003600084B58F7784BDDBCF84B58F7DFBCF809143
:10037000B0008F778093B000D2CF8091B0008F7D96
:10038000F9CF3E2BDACFCF93DF9390E0FC01E05919
:10039000FD4F2491845A9D4FFC0184918823D1F014
:1003A00090E0880F991FFC01E85BFD4FA591B49187
:1003B000FC01EE5AFD4FC591D49161110EC09FB75B
:1003C000F8948C91E22FE0958E238C932881E22380
:1003D000E8839FBFDF91CF9108958FB7F894EC9198
:1003E000E22BEC938FBFF6CF3FB7F8948091510189
:1003F00090915201A0915301B091540126B5A89B50
:1004000005C02F3F19F00196A11DB11D3FBFBA2FA6
:10041000A92F982F8827BC01CD01620F711D811D66
:10042000911D42E0660F771F881F991F4A95D1F7EB
:1004300008958F929F92AF92BF92CF92DF92EF92E8
:10044000FF924B015C010E94F4016B017C010E9450
:10045000F4016C197D098E099F09683E734081057E
:100460009105A8F321E0821A9108A108B10888EE4D
:10047000C80E83E0D81EE11CF11C81149104A10474
:10048000B10429F7FF90EF90DF90CF90BF90AF902D
:100490009F908F900895AF92BF92CF92DF92EF928C
:1004A000FF920F931F93CF93DF936C017B018B011E
:1004B000040F151FEB015E01AE18BF08C017D1076E
:1004C00059F06991D601ED91FC910190F081E02DF8
:1004D000C6010995892B79F7C501DF91CF911F914D
:1004E0000F91FF90EF90DF90CF90BF90AF90089565
:1004F000FC01538D448D252F30E0842F90E0821B2A
:10050000930B541710F0CF96089501970895FC01AE
:10051000918D828D981761F0A28DAE0FBF2FB11D06
:100520005D968C91928D9F5F9F73928F90E008955E
:100530008FEF9FEF0895FC01918D828D981731F018
:10054000828DE80FF11D858D90E008958FEF9FEF6C
:100550000895FC01918D228D892F90E0805C9F4F42
:10056000821B91098F739927089585E591E00E9478
:10057000A90221E0892B09F420E0822F089580E070
:1005800090E0892B29F00E94B50281110C940000A3
:100590000895FC01A48DA80FB92FB11DA35ABF4F18
:1005A0002C91848D90E001968F739927848FA68972
:1005B000B7892C93A089B1898C91837080648C93C6
:1005C000938D848D981306C00288F389E02D808175
:1005D0008F7D80830895EF92FF920F931F93CF93A7
:1005E000DF93EC0181E0888F9B8D8C8D98131AC06E
:1005F000E889F989808185FF15C09FB7F894EE8955
:10060000FF896083E889F9898081837080648083B1
:100610009FBF81E090E0DF91CF911F910F91FF90FC
:10062000EF900895F62E0B8D10E00F5F1F4F0F73A4
:100630001127E02E8C8D8E110CC00FB607FCFACF5F
:10064000E889F989808185FFF5CFCE010E94C90232
:10065000F1CFEB8DEC0FFD2FF11DE35AFF4FF08230
:100660009FB7F8940B8FEA89FB8980818062CFCF96
:10067000CF93DF93EC01888D8823B9F0AA89BB89D9
:10068000E889F9898C9185FD03C0808186FD0DC0C4
:100690000FB607FCF7CF8C9185FFF2CF808185FFE5
:1006A000EDCFCE010E94C902E9CFDF91CF9108952D
:1006B000089590E080E00895EF92FF920F931F93CA
:1006C000CF93DF93EC01042F8E810E94770160E0CD
:1006D00088850E947701FC80ED8018E0602F661FFE
:1006E0006627661F8E2D0E947701000F61E08F2D17
:1006F0000E94770160E08F2D0E947701115071F701
:1007000061E08885DF91CF911F910F91FF90EF906D
:100710000C947701CF93DF93C2EFD1E01C8690E079
:100720006B8529E3629F612D1124669570E06F5FF0
:100730007F4F0E942C0A8D8740E860E0CE010E9426
:100740005C034D85406460E0CE01DF91CF910C9455
:100750005C03FB0101900020E9F73197AF01461BD4
:10076000570BDC01ED91FC910280F381E02D09949F
:100770008F929F92AF92BF92EF92FF920F931F932F
:10078000CF93DF93CDB7DEB7A1970FB6F894DEBF56
:100790000FBECDBF7C01FA01CB0119A2223008F4B3
:1007A0002AE08E010F5D1F4F822E912CB12CA12CBF
:1007B000BF01A50194010E94400AF901CA016A30F3
:1007C0000CF5605DD8016E938D01232B242B252B16
:1007D00079F790E080E0109721F0BD01C7010E94F9
:1007E000A903A1960FB6F894DEBF0FBECDBFDF916F
:1007F000CF911F910F91FF90EF90BF90AF909F907E
:100800008F900895695CDECFCF92DF92EF92FF92D6
:100810000F931F93CF93DF9300D000D01F92CDB7DB
:10082000DEB767FD6BC07C01862F90E0603208F474
:1008300055C0809725E0289FB001299F700D112495
:1008400068597F4F45E050E0CE0101960E94E007D5
:100850008E010F5F1F4F680185E0C80ED11CF801A3
:1008600041918F01F70186858111409561E0C701B3
:100870000E945C030C151D0591F7F7014685419513
:1008800061E0C7010E945C03F701848590E0069651
:10089000628570E00E942C0A8487892B79F4858513
:1008A00090E00196638529E3629F612D112466958E
:1008B00070E06F5F7F4F0E942C0A858781E090E097
:1008C0000F900F900F900F900F90DF91CF911F918D
:1008D0000F91FF90EF90DF90CF900895880F991FB0
:1008E000F701E80FF91F078510890115110509F0B7
:1008F000B2CF45E050E068E670E0A6CF90E080E03F
:10090000DFCF1F920F920FB60F9211242F933F93B8
:100910008F939F93AF93BF9380914D0190914E0120
:10092000A0914F01B091500130914C0123E0230F71
:100930002D3758F50196A11DB11D20934C018093D0
:100940004D0190934E01A0934F01B09350018091BF
:10095000510190915201A0915301B091540101961F
:10096000A11DB11D8093510190935201A093530199
:10097000B0935401BF91AF919F918F913F912F916F
:100980000F900FBE0F901F90189526E8230F029628
:10099000A11DB11DD2CF1F920F920FB60F9211243D
:1009A0002F933F934F935F936F937F938F939F9377
:1009B000AF93BF93EF93FF9385E591E00E94C90247
:1009C000FF91EF91BF91AF919F918F917F916F9127
:1009D0005F914F913F912F910F900FBE0F901F90FD
:1009E00018951F920F920FB60F9211242F938F9389
:1009F0009F93EF93FF93E0916501F09166018081F1
:100A0000E0916B01F0916C0182FD1BC0908180919F
:100A10006E018F5F8F7320916F01821741F0E0911B
:100A20006E01F0E0EB5AFE4F958F80936E01FF91BF
:100A3000EF919F918F912F910F900FBE0F901F906C
:100A400018958081F4CFE5E5F1E01382128288EEFB
:100A500093E0A0E0B0E084839583A683B78384E02D
:100A600091E09183808385EC90E09587848784EC86
:100A700090E09787868780EC90E0918B808B81EC6B
:100A800090E0938B828B82EC90E0958B848B86EC4C
:100A900090E0978B868B118E128E138E148EE2EF60
:100AA000F1E01382128286E191E09183808383E0FA
:100AB000848384E0858385E0868386E0878387E07E
:100AC000808716860895789484B5826084BD84B545
:100AD000816084BD85B5826085BD85B5816085BD39
:100AE00080916E00816080936E00109281008091F1
:100AF0008100826080938100809181008160809379
:100B00008100809180008160809380008091B1009D
:100B100084608093B1008091B00081608093B000C8
:100B200080917A00846080937A0080917A0082605C
:100B300080937A0080917A00816080937A0080911E
:100B40007A00806880937A001092C100E09165017C
:100B5000F091660182E08083E0916101F091620191
:100B60001082E0916301F09164018FEC8083109218
:100B70006D01E0916901F0916A0186E08083E09166
:100B80006701F0916801808180618083E091670155
:100B9000F0916801808188608083E0916701F09125
:100BA0006801808180688083E0916701F09168012D
:100BB00080818F7D808360E080E00E94C30184E5B6
:100BC0008093FC0180E38093FD011092FB01109261
:100BD000FE011092FF01E1E0F2E080E4DF011D92EE
:100BE0008A95E9F761E08091F6010E94C30161E016
:100BF0008091F7010E94C30161E08091F8010E9499
:100C0000C30161E08091F9010E94C30161E080911C
:100C1000FA010E94C30161E08091F9010E9477010D
:100C200061E08091FA010E94770160E08091F90112
:100C30000E94770164E670E080E090E00E94190273
:100C400061E08091F9010E94770141E260E082EF6A
:100C500091E00E945C0343E160E082EF91E00E943A
:100C60005C038091FB0142EC813039F440EE60E09E
:100C700082EF91E00E945C0345E060E082EF91E04A
:100C80000E945C0340E260E082EF91E00E945C031E
:100C900049E060E082EF91E00E945C0380E00E9406
:100CA0008A03D0E0C0E08091FD0186958695869507
:100CB0009091FC01899FC0011124C817D90740F405
:100CC00040E061E082EF91E00E945C032196EBCF6F
:100CD00080E00E948A0348E060E082EF91E00E9499
:100CE0005C034CE060E082EF91E00E945C0364E60C
:100CF00070E080E090E00E94190240E860E082EF3E
:100D000091E00E945C0340E460E082EF91E00E9489
:100D10005C036EE171E082EF91E00E94A90361E063
:100D200088E00E94C30110E4C0E0D0E010937C0092
:100D300080917A00806480937A0080917A0086FDA9
:100D4000FCCF6091780070917900072E000C880B21
:100D5000990B0E94050929EC36E740EA50E40E940D
:100D6000BA0920E030E040E85AE30E94BA0925E5DC
:100D700035E545E55FE30E945B086B017C012CEEE5
:100D800031E548EB5DE30E94560887FD90C0C092B4
:100D90004801D0924901E0924A01F0924B0120E0D3
:100DA00030E040EA50E4609148017091490180913F
:100DB0004A0190914B010E94BA090E94CD086B0133
:100DC000770FEE08FF082AE0B701A601F7FE0DC075
:100DD0006DE285E591E00E94EB0244275527BA01B8
:100DE0004C195D096E097F092AE085E591E00E94B2
:100DF000B8036CE271E085E591E00E94A9036FE21F
:100E000071E085E591E00E94A90381E00E948A03D8
:100E100062E371E082EF91E00E94A90320E030E0FC
:100E200040EA50E4609148017091490180914A0183
:100E300090914B010E94BA096B017C014B015C014E
:100E4000AC019B010E94270A6CE371E081111AC07A
:100E500026013701E89477F82FEF3FEF4FE75FE780
:100E6000C301B2010E94270A81112AC02FEF3FEF70
:100E70004FE75FE7C301B2010E945608181604F558
:100E800060E471E082EF91E00E94A90364EF71E0F9
:100E900080E090E00E941902209709F447CF0E9459
:100EA000B502882309F442CF0E9400003FCF109280
:100EB00048011092490110924A0110924B016FCFE4
:100EC0002FEF3FEF4FE75FE4C701B6010E94B5097E
:100ED00018161CF464E471E0D5CF2FEF3FEF4FE715
:100EE0005FECC701B6010E94560887FDF3CF20E0F2
:100EF00030E0A901C701B6010E94560887FF0BC068
:100F00006DE282EF91E00E94040446015701B7FAB6
:100F1000B094B7F8B0942AE037ED43EA5BE3C5013B
:100F2000B4010E94EA074B015C010E94D4086B01E6
:100F30007C010E9403099B01AC01C501B4010E9420
:100F4000E9074B015C012AE0B701A60182EF91E0BD
:100F50000E94B8036EE282EF91E00E94040420E058
:100F600030E040E251E4C501B4010E94BA094B01EE
:100F70005C010E94D4086B01F12CE12C2AE0B7013E
:100F8000A60182EF91E00E94B803C701B6010E945A
:100F900003099B01AC01C501B4010E94E90720E0EF
:100FA00030E040E251E40E94BA090E94D408AB014B
:100FB00070E060E02AE082EF91E00E94B80366CF23
:100FC000FB01DC0102C005900D9241505040D8F762
:100FD00008955058BB27AA270E9401080C947B094A
:100FE0000E946D0938F00E94740920F039F49F3F87
:100FF00019F426F40C946A090EF4E095E7FB0C94BE
:101000006409E92F0E948C0958F3BA176207730725
:101010008407950720F079F4A6F50C94AE090EF438
:10102000E0950B2EBA2FA02D0B01B90190010C01F8
:10103000CA01A0011124FF27591B99F0593F50F410
:10104000503E68F11A16F040A22F232F342F442768
:10105000585FF3CF469537952795A795F040539560
:10106000C9F77EF41F16BA0B620B730B840BBAF030
:101070009150A1F0FF0FBB1F661F771F881FC2F79B
:101080000EC0BA0F621F731F841F48F487957795AF
:101090006795B795F7959E3F08F0B0CF9395880F69
:1010A00008F09927EE0F9795879508950E944009BB
:1010B00008F481E008950E946F080C947B090E9457
:1010C000740958F00E946D0940F029F45F3F29F03F
:1010D0000C94640951110C94AF090C946A090E9494
:1010E0008C0968F39923B1F3552391F3951B550BA4
:1010F000BB27AA2762177307840738F09F5F5F4FEB
:10110000220F331F441FAA1FA9F335D00E2E3AF029
:10111000E0E832D091505040E695001CCAF72BD041
:10112000FE2F29D0660F771F881FBB1F2617370792
:101130004807AB07B0E809F0BB0B802DBF01FF27C4
:1011400093585F4F3AF09E3F510578F00C94640934
:101150000C94AF095F3FE4F3983ED4F386957795FE
:101160006795B795F7959F5FC9F7880F911D96957D
:10117000879597F90895E1E0660F771F881FBB1FD9
:10118000621773078407BA0720F0621B730B840B86
:10119000BA0BEE1F88F7E09508950E94D408689472
:1011A000B1110C94AF0908950E94940988F09F57DB
:1011B00098F0B92F9927B751B0F0E1F0660F771F7B
:1011C000881F991F1AF0BA95C9F714C0B13091F071
:1011D0000E94AE09B1E008950C94AE09672F782FF4
:1011E0008827B85F39F0B93FCCF386957795679536
:1011F000B395D9F73EF490958095709561957F4FA2
:101200008F4F9F4F0895E89409C097FB3EF4909547
:101210008095709561957F4F8F4F9F4F9923A9F0CF
:10122000F92F96E9BB279395F6958795779567955E
:10123000B795F111F8CFFAF4BB0F11F460FF1BC0A2
:101240006F5F7F4F8F4F9F4F16C0882311F096E935
:1012500011C0772321F09EE8872F762F05C06623E3
:1012600071F096E8862F70E060E02AF09A95660F9C
:10127000771F881FDAF7880F9695879597F9089555
:10128000990F0008550FAA0BE0E8FEEF1616170697
:10129000E807F907C0F012161306E407F50798F0FF
:1012A000621B730B840B950B39F40A2661F0232B18
:1012B000242B252B21F408950A2609F4A140A69594
:1012C0008FEF811D811D089597F99F6780E870E079
:1012D00060E008959FEF80EC089500240A941616AC
:1012E000170618060906089500240A941216130614
:1012F000140605060895092E0394000C11F48823A2
:1013000052F0BB0F40F4BF2B11F460FF04C06F5FBD
:101310007F4F8F4F9F4F089557FD9058440F551F93
:1013200059F05F3F71F04795880F97FB991F61F067
:101330009F3F79F087950895121613061406551FDE
:10134000F2CF4695F1DF08C0161617061806991F4A
:10135000F1CF86957105610508940895E894BB273F
:1013600066277727CB0197F908950E94400908F472
:101370008FEF08950E94CD090C947B090E946D099E
:1013800038F00E94740920F0952311F00C94640940
:101390000C946A0911240C94AF090E948C0970F313
:1013A000959FC1F3950F50E0551F629FF001729F0A
:1013B000BB27F00DB11D639FAA27F00DB11DAA1F19
:1013C000649F6627B00DA11D661F829F2227B00D66
:1013D000A11D621F739FB00DA11D621F839FA00DF1
:1013E000611D221F749F3327A00D611D231F849F41
:1013F000600D211D822F762F6A2F11249F57504098
:101400009AF0F1F088234AF0EE0FFF1FBB1F661F12
:10141000771F881F91505040A9F79E3F510580F0DB
:101420000C9464090C94AF095F3FE4F3983ED4F345
:10143000869577956795B795F795E7959F5FC1F77F
:10144000FE2B880F911D9695879597F908950E9418
:101450004009880B990B089597FB072E16F400940A
:1014600007D077FD09D00E94620A07FC05D03EF440
:10147000909581959F4F0895709561957F4F089540
:10148000A1E21A2EAA1BBB1BFD010DC0AA1FBB1F88
:10149000EE1FFF1FA217B307E407F50720F0A21BFA
:1014A000B30BE40BF50B661F771F881F991F1A9467
:1014B00069F760957095809590959B01AC01BD0191
:1014C000CF010895AA1BBB1B51E107C0AA1FBB1F78
:1014D000A617B70710F0A61BB70B881F991F5A95C0
:1014E000A9F780959095BC01CD010895EE0FFF1FDF
:1014F0000590F491E02D0994F894FFCF00000000CE
:10150000EB024B0278023803A90287029B0200001B
:10151000000004044B0259035803444320564F4C27
:1015200054494D4554524F002056000D0A00494E73
:1015300050555420563D20006E616E00696E660065
:041540006F7666005C
:107E0000112484B714BE81FFF0D085E080938100F7
:107E100082E08093C00088E18093C10086E0809377
:107E2000C20080E18093C4008EE0C9D0259A86E02C
:107E300020E33CEF91E0309385002093840096BBD3
:107E4000B09BFECF1D9AA8958150A9F7CC24DD24C4
:107E500088248394B5E0AB2EA1E19A2EF3E0BF2EE7
:107E6000A2D0813461F49FD0082FAFD0023811F036
:107E7000013811F484E001C083E08DD089C08234E0
:107E800011F484E103C0853419F485E0A6D080C0E4
:107E9000853579F488D0E82EFF2485D0082F10E0AE
:107EA000102F00270E291F29000F111F8ED06801E7
:107EB0006FC0863521F484E090D080E0DECF843638
:107EC00009F040C070D06FD0082F6DD080E0C81688
:107ED00080E7D80618F4F601B7BEE895C0E0D1E017
:107EE00062D089930C17E1F7F0E0CF16F0E7DF06D8
:107EF00018F0F601B7BEE89568D007B600FCFDCFD4
:107F0000A601A0E0B1E02C9130E011968C91119780
:107F100090E0982F8827822B932B1296FA010C0160
:107F200087BEE89511244E5F5F4FF1E0A038BF0790
:107F300051F7F601A7BEE89507B600FCFDCF97BE46
:107F4000E89526C08437B1F42ED02DD0F82E2BD052
:107F50003CD0F601EF2C8F010F5F1F4F84911BD097
:107F6000EA94F801C1F70894C11CD11CFA94CF0C13
:107F7000D11C0EC0853739F428D08EE10CD085E9AC
:107F80000AD08FE07ACF813511F488E018D01DD067
:107F900080E101D065CF982F8091C00085FFFCCF94
:107FA0009093C60008958091C00087FFFCCF809118
:107FB000C00084FD01C0A8958091C6000895E0E648
:107FC000F0E098E1908380830895EDDF803219F02E
:107FD00088E0F5DFFFCF84E1DECF1F93182FE3DFCA
:107FE0001150E9F7F2DF1F91089580E0E8DFEE27F6
:047FF000FF270994CA
:027FFE00040479
:00000001FF
