:020000040000FA
:100000000C9452010C947A010C947A010C947A01AC
:100010000C947A010C947A010C947A010C947A0174
:100020000C947A010C947A010C947A010C947A0164
:100030000C947A010C947A010C947A010C947A0154
:100040000C94BD050C947A010C942D060C940706B3
:100050000C947A010C947A010C947A010C947A0134
:100060000C947A010C947A01000000000000005FFB
:1000700000000007000700147F147F14242A7F2A41
:10008000122313086462364955225000050300000C
:10009000001C2241000041221C0014083E081408E4
:1000A000083E0808005030000008080808080060F2
:1000B00060000020100804023E5149453E00427F86
:1000C000400042615149462141454B311814127F8D
:1000D0001027454545393C4A494930017109050316
:1000E0003649494936064949291E0036360000007E
:1000F0005636000008142241001414141414004150
:100100002214080201510906324979413E7E11113B
:10011000117E7F494949363E414141227F4141227A
:100120001C7F494949417F090909013E4149497AF2
:100130007F0808087F00417F41002040413F017F48
:10014000081422417F404040407F020C027F7F0420
:1001500008107F3E4141413E7F090909063E415159
:10016000215E7F09192946464949493101017F012C
:10017000013F4040403F1F2040201F3F4038403F4C
:100180006314081463070870080761514945430068
:100190007F41410002040810200041417F00040219
:1001A0000102044040404040000102040020545439
:1001B00054787F48444438384444442038444448C0
:1001C0007F3854545418087E0901020C5252523E92
:1001D0007F0804047800447D40002040443D007FB7
:1001E0001028440000417F40007C041804787C08FB
:1001F00004047838444444387C1414140808141453
:10020000187C7C080404084854545420043F44409B
:10021000203C4040207C1C2040201C3C4030403C86
:1002200044281028440C5050503C4464544C440022
:100230000836410000007F00000041360800100829
:100240000810080000000000000000002400270043
:100250002A0000000000250028002B0000000000FC
:1002600023002600290004040404040404040202F8
:100270000202020203030303030301020408102025
:100280004080010204081020010204081020000030
:100290000008000201000003040700000000000045
:1002A00000005F0611241FBECFEFD8E0DEBFCDBF38
:1002B00011E0A0E0B1E0E8E4F7E102C005900D92A2
:1002C000AE35B107D9F722E0AEE5B1E001C01D922D
:1002D000AC35B207E1F711E0C2E5D1E004C02197E7
:1002E000FE010E949C0BC135D107C9F70E949F06F1
:1002F0000C94A20B0C940000833081F028F4813020
:1003000099F08230A9F008958730A9F08830C9F0BB
:100310008430B1F4809180008F7D03C08091800093
:100320008F7780938000089584B58F7784BD08957A
:1003300084B58F7DFBCF8091B0008F778093B00024
:1003400008958091B0008F7DF9CFCF93DF93282F50
:1003500030E0F901E257FD4F8491F901E658FD4F75
:10036000D491F901EA59FD4FC491CC23A1F0811138
:100370000E947C01EC2FF0E0EE0FFF1FE45AFD4FCE
:10038000A591B491EC91ED2381E090E009F480E037
:10039000DF91CF91089580E090E0FACF1F93CF9343
:1003A000DF93282F30E0F901E257FD4F8491F901E6
:1003B000E658FD4FD491F901EA59FD4FC491CC2381
:1003C000A9F0162F81110E947C01EC2FF0E0EE0FB6
:1003D000FF1FEE5AFD4FA591B4918FB7F894EC91A1
:1003E000111108C0D095DE23DC938FBFDF91CF9130
:1003F0001F910895DE2BF8CFCF93DF9390E0FC019F
:10040000E658FD4F24918A599D4FFC018491882321
:10041000D1F090E0880F991FFC01E85BFD4FA5919A
:10042000B491FC01EE5AFD4FC591D49161110EC0FB
:100430009FB7F8948C91E22FE0958E238C932881BE
:10044000E223E8839FBFDF91CF9108958FB7F8949F
:10045000EC91E22BEC938FBFF6CF3FB7F8948091ED
:100460006C0190916D01A0916E01B0916F0126B564
:10047000A89B05C02F3F19F00196A11DB11D3FBFDC
:10048000BA2FA92F982F8827BC01CD01620F711DAB
:10049000811D911D42E0660F771F881F991F4A95A5
:1004A000D1F708958F929F92AF92BF92CF92DF9231
:1004B000EF92FF924B015C010E942D026B017C01C7
:1004C0000E942D026C197D098E099F09683E7340B8
:1004D00081059105A8F321E0821A9108A108B108CD
:1004E00088EEC80E83E0D81EE11CF11C8114910433
:1004F000A104B10429F7FF90EF90DF90CF90BF9057
:10050000AF909F908F900895AF92BF92CF92DF925D
:10051000EF92FF920F931F93CF93DF936C017B01B8
:100520008B01040F151FEB015E01AE18BF08C01749
:10053000D10759F06991D601ED91FC910190F081BC
:10054000E02DC6010995892B79F7C501DF91CF917F
:100550001F910F91FF90EF90DF90CF90BF90AF90E1
:100560000895FC01538D448D252F30E0842F90E0B9
:10057000821B930B541710F0CF960895019708959E
:10058000FC01918D828D981761F0A28DAE0FBF2F67
:10059000B11D5D968C91928D9F5F9F73928F90E0BD
:1005A00008958FEF9FEF0895FC01918D828D98172C
:1005B00031F0828DE80FF11D858D90E008958FEF69
:1005C0009FEF0895FC01918D228D892F90E0805C32
:1005D0009F4F821B91098F739927089580E791E0BF
:1005E0000E94E20221E0892B09F420E0822F089585
:1005F00080E090E0892B29F00E94EE0281110C949A
:1006000000000895FC01A48DA80FB92FB11DA35AB5
:10061000BF4F2C91848D90E001968F739927848F22
:10062000A689B7892C93A089B1898C918370806445
:100630008C93938D848D981306C00288F389E02DE6
:1006400080818F7D80830895EF92FF920F931F9397
:10065000CF93DF93EC0181E0888F9B8D8C8D981375
:100660001AC0E889F989808185FF15C09FB7F89481
:10067000EE89FF896083E889F989808183708064CD
:1006800080839FBF81E090E0DF91CF911F910F9118
:10069000FF90EF900895F62E0B8D10E00F5F1F4F27
:1006A0000F731127E02E8C8D8E110CC00FB607FC36
:1006B000FACFE889F989808185FFF5CFCE010E94C4
:1006C0000203F1CFEB8DEC0FFD2FF11DE35AFF4F2D
:1006D000F0829FB7F8940B8FEA89FB898081806252
:1006E000CFCFCF93DF93EC01888D8823B9F0AA890F
:1006F000BB89E889F9898C9185FD03C0808186FDDD
:100700000DC00FB607FCF7CF8C9185FFF2CF80812B
:1007100085FFEDCFCE010E940203E9CFDF91CF919B
:100720000895089590E080E00895FB010190002075
:10073000E9F73197AF01461B570BDC01ED91FC91B6
:100740000280F381E02D09948F929F92AF92BF9225
:10075000EF92FF920F931F93CF93DF93CDB7DEB746
:10076000A1970FB6F894DEBF0FBECDBF7C01FA0192
:10077000CB0119A2223008F42AE08E010F5D1F4F31
:10078000822E912CB12CA12CBF01A50194010E94B5
:10079000660BF901CA016A300CF5605DD8016E93F1
:1007A0008D01232B242B252B79F790E080E01097E7
:1007B00021F0BD01C7010E949503A1960FB6F894E0
:1007C000DEBF0FBECDBFDF91CF911F910F91FF9084
:1007D000EF90BF90AF909F908F900895695CDECFAF
:1007E0002F923F924F925F926F927F928F929F9241
:1007F000AF92BF92CF92DF92EF92FF921F93CF936F
:10080000DF93EC016A017B01722EAB019601CB01F3
:10081000B6010E944D0B6EE171E0811126C04601C8
:100820005701E894B7F82FEF3FEF4FE75FE7C501B7
:10083000B4010E944D0B81110CC02FEF3FEF4FE729
:100840005FE7C501B4010E94830962E271E01816F6
:1008500064F02FEF3FEF4FE75FE4C701B6010E945E
:10086000DB0A1816B4F466E271E0CE01DF91CF9195
:100870001F91FF90EF90DF90CF90BF90AF909F902F
:100880008F907F906F905F904F903F902F900C943F
:1008900095032FEF3FEF4FE75FECC701B6010E94D2
:1008A000830987FDE0CF20E030E0A901C701B60150
:1008B0000E948309312C212C87FF0DC0E881F9812A
:1008C0000190F081E02D6DE2CE0109951C01F7FA4F
:1008D000F094F7F8F09410E060E070E080E09FE3BF
:1008E000711641F020E030E040E251E40E948809B6
:1008F0001F5FF6CFA70196010E9417092B013C014B
:100900000E94FA094B015C012AE0BC01A401CE015E
:100910000E94A4037C01E20CF31C1123E1F1C50148
:10092000B4010E94290A9B01AC01C301B2010E94DB
:1009300016094B015C01E881F9810190F081E02DFD
:100940006EE2CE010995E80EF91E115020F120E06B
:1009500030E040E251E4C501B4010E94E00A2B01FD
:100960003C010E94FA094B01B12CA12C2AE0B501EF
:10097000A401CE010E94A403E80EF91EC501B40132
:100980000E94290A9B01AC01C301B2010E94160911
:100990004B015C01DACFC701DF91CF911F91FF902E
:1009A000EF90DF90CF90BF90AF909F908F907F900F
:1009B0006F905F904F903F902F900895CF93DF936B
:1009C000AB01BC0122E080E791E00E94F003EC0162
:1009D0006AE271E080E791E00E9495038C0F9D1F11
:1009E000DF91CF910895EF92FF920F931F93CF93D2
:1009F000DF93EC01042F8E810E94CE0160E0888598
:100A00000E94CE01FC80ED8018E0602F661F6627F3
:100A1000661F8E2D0E94CE01000F61E08F2D0E9477
:100A2000CE0160E08F2D0E94CE01115071F761E080
:100A30008885DF91CF911F910F91FF90EF900C94DB
:100A4000CE01CF93DF93CDE0D2E01C8690E06B85A2
:100A500029E3629F612D1124669570E06F5F7F4FDF
:100A60000E94520B8D8740E860E0CE010E94F304A3
:100A70004D85406460E0CE01DF91CF910C94F3048A
:100A8000CF92DF92EF92FF920F931F93CF93DF935A
:100A900000D000D01F92CDB7DEB767FD6BC07C01E0
:100AA000862F90E0603208F455C0809725E0289F9B
:100AB000B001299F700D112468597F4F45E050E027
:100AC000CE0101960E940D098E010F5F1F4F680134
:100AD00085E0C80ED11CF80141918F01F701868590
:100AE0008111409561E0C7010E94F3040C151D05BA
:100AF00091F7F7014685419561E0C7010E94F30433
:100B0000F701848590E00696628570E00E94520BA2
:100B10008487892B79F4858590E00196638529E3A4
:100B2000629F612D1124669570E06F5F7F4F0E9478
:100B3000520B858781E090E00F900F900F900F90FF
:100B40000F90DF91CF911F910F91FF90EF90DF9069
:100B5000CF900895880F991FF701E80FF91F0785B7
:100B600010890115110509F0B2CF45E050E068E6A3
:100B700070E0A6CF90E080E0DFCF1F920F920FB61B
:100B80000F9211242F933F938F939F93AF93BF9313
:100B90008091680190916901A0916A01B0916B0107
:100BA0003091670123E0230F2D3758F50196A11DE1
:100BB000B11D209367018093680190936901A09310
:100BC0006A01B0936B0180916C0190916D01A091CD
:100BD0006E01B0916F010196A11DB11D80936C0152
:100BE00090936D01A0936E01B0936F01BF91AF918F
:100BF0009F918F913F912F910F900FBE0F901F905B
:100C0000189526E8230F0296A11DB11DD2CF1F9281
:100C10000F920FB60F9211242F933F934F935F9330
:100C20006F937F938F939F93AF93BF93EF93FF93B4
:100C300080E791E00E940203FF91EF91BF91AF9195
:100C40009F918F917F916F915F914F913F912F91E4
:100C50000F900FBE0F901F9018951F920F920FB616
:100C60000F9211242F938F939F93EF93FF93E09113
:100C70008001F09181018081E0918601F0918701EE
:100C800082FD1BC09081809189018F5F8F732091BD
:100C90008A01821741F0E0918901F0E0E059FE4FAE
:100CA000958F80938901FF91EF919F918F912F9163
:100CB0000F900FBE0F901F9018958081F4CFE0E742
:100CC000F1E01382128288EE93E0A0E0B0E084832A
:100CD0009583A683B78384E091E09183808385EC3C
:100CE00090E09587848784EC90E09787868780ECF6
:100CF00090E0918B808B81EC90E0938B828B82ECE7
:100D000090E0958B848B86EC90E0978B868B118E90
:100D1000128E138E148EEDE0F2E01382128286E1C1
:100D200091E09183808383E0848384E0858385E000
:100D3000868386E0878387E0808716860895789487
:100D400084B5826084BD84B5816084BD85B58260D0
:100D500085BD85B5816085BD80916E008160809381
:100D60006E001092810080918100826080938100EA
:100D700080918100816080938100809180008160FA
:100D8000809380008091B10084608093B100809155
:100D9000B00081608093B00080917A00846080937D
:100DA0007A0080917A00826080937A0080917A0044
:100DB000816080937A0080917A00806880937A00C5
:100DC0001092C100E0918001F091810182E0808366
:100DD000E0917C01F0917D011082E0917E01F09123
:100DE0007F018FEC808310928801E0918401F09163
:100DF000850186E08083E0918201F091830180810A
:100E000080618083E0918201F0918301808188601C
:100E10008083E0918201F0918301808180688083EA
:100E2000E0918201F091830180818F7D808360E079
:100E300080E00E94FC0160E082E00E94FC0160E032
:100E40008DE00E94FC0184E58093170280E380938B
:100E50001802109216021092190210921A02ECE176
:100E6000F2E080E4DF011D928A95E9F761E080916C
:100E700011020E94FC0161E0809112020E94FC01BB
:100E800061E0809113020E94FC0161E080911402F4
:100E90000E94FC0161E0809115020E94FC0161E06A
:100EA000809114020E94CE0161E0809115020E949F
:100EB000CE0160E0809114020E94CE0164E670E0F1
:100EC00080E090E00E94520261E0809114020E9452
:100ED000CE0141E260E08DE092E00E94F30443E144
:100EE00060E08DE092E00E94F3048091160242ECF3
:100EF000813039F440EE60E08DE092E00E94F3042E
:100F000045E060E08DE092E00E94F30440E260E0A2
:100F10008DE092E00E94F30449E060E08DE092E011
:100F20000E94F30480E00E942105D0E0C0E080919F
:100F3000180286958695869590911702899FC00123
:100F40001124C817D90740F440E061E08DE092E039
:100F50000E94F3042196EBCF80E00E94210548E037
:100F600060E08DE092E00E94F3044CE060E08DE0F0
:100F700092E00E94F30464E670E080E090E00E945A
:100F8000520240E860E08DE092E00E94F30440E409
:100F900060E08DE092E00E94F3046DE271E08DE08C
:100FA00092E00E94950361E089E00E94FC0180E4E8
:100FB000B82EC0E0D0E082E00E94A50180936601D7
:100FC0008DE00E94A5018C01B0927C0080917A0096
:100FD000806480937A0080917A0086FDFCCF6091D6
:100FE000780070917900072E000C880B990B0E94F5
:100FF0002B0A29EC36E740EA50E40E94E00A20E0A0
:1010000030E040E85AE30E94E00A25E535E545E591
:101010005FE30E9488096B017C01C0926201D0925B
:101020006301E0926401F0926501012B09F0ADC00B
:101030008091660181116AC020E030E040EA50E40E
:10104000C701B6010E94E00A20E030E040EC51E424
:101050000E94DB0A61E018160CF060E089E00E9453
:10106000CE0182E00E94210562E471E08DE092E011
:101070000E94950320E030E040EA50E46091620174
:101080007091630180916401909165010E94E00A72
:10109000AB01BC0122E08DE092E00E94F00367E426
:1010A00071E080E791E00E94950320E030E040EAA3
:1010B00050E46091620170916301809164019091AC
:1010C00065010E94E00A0E94DE0464EF71E080E0A6
:1010D00090E00E9452026AE571E080E791E00E9490
:1010E0009503609162017091630180916401909118
:1010F00065010E94DE04209709F45DCF0E94EE0294
:10110000882309F458CF0E94000055CF813019F789
:1011100020E030E040EA50ECC701B6010E94E00A4E
:1011200020E030E040EC51EC0E94830961E087FF51
:1011300060E089E00E94CE0182E00E9421056EE419
:1011400071E08DE092E00E94950320E030E040EAFB
:1011500050EC609162017091630180916401909103
:1011600065010E94E00AAB01BC0122E08DE092E043
:101170000E94F00367E471E080E791E00E9495032C
:1011800020E030E040EA50EC94CF20915E013091B5
:101190005F0140916001509161010E94DB0A1816C5
:1011A0000CF099CFC0925E01D0925F01E092600195
:1011B000F092610182E00E9421056EE471E08DE011
:1011C00092E00E94950320E030E040EA50E4609114
:1011D0005E0170915F0180916001909161010E94B8
:1011E000E00A23EF34E045EB5FE30E948809AB019E
:1011F000BC0122E08DE092E00E94F00362E571E024
:1012000080E791E00E94950360915E0170915F011B
:10121000809160019091610156CFFB01DC0102C019
:1012200005900D9241505040D8F708955058BB2773
:10123000AA270E942E090C94A10A0E94930A38F052
:101240000E949A0A20F039F49F3F19F426F40C9476
:10125000900A0EF4E095E7FB0C948A0AE92F0E94AD
:10126000B20A58F3BA17620773078407950720F08C
:1012700079F4A6F50C94D40A0EF4E0950B2EBA2F4F
:10128000A02D0B01B90190010C01CA01A00111248C
:10129000FF27591B99F0593F50F4503E68F11A1638
:1012A000F040A22F232F342F4427585FF3CF4695C9
:1012B00037952795A795F0405395C9F77EF41F16EB
:1012C000BA0B620B730B840BBAF09150A1F0FF0FB5
:1012D000BB1F661F771F881FC2F70EC0BA0F621FA1
:1012E000731F841F48F4879577956795B795F79591
:1012F0009E3F08F0B0CF9395880F08F09927EE0F26
:101300009795879508950E94660A08F481E00895EC
:101310000E949C090C94A10A0E949A0A58F00E940B
:10132000930A40F029F45F3F29F00C948A0A511186
:101330000C94D50A0C94900A0E94B20A68F399237F
:10134000B1F3552391F3951B550BBB27AA276217C1
:101350007307840738F09F5F5F4F220F331F441FCE
:10136000AA1FA9F335D00E2E3AF0E0E832D0915002
:101370005040E695001CCAF72BD0FE2F29D0660FEF
:10138000771F881FBB1F261737074807AB07B0E832
:1013900009F0BB0B802DBF01FF2793585F4F3AF038
:1013A0009E3F510578F00C948A0A0C94D50A5F3F51
:1013B000E4F3983ED4F3869577956795B795F795BE
:1013C0009F5FC9F7880F911D9695879597F90895A6
:1013D000E1E0660F771F881FBB1F62177307840742
:1013E000BA0720F0621B730B840BBA0BEE1F88F751
:1013F000E09508950E94BA0A88F09F5798F0B92F97
:101400009927B751B0F0E1F0660F771F881F991F39
:101410001AF0BA95C9F714C0B13091F00E94D40AFD
:10142000B1E008950C94D40A672F782F8827B85F0D
:1014300039F0B93FCCF3869577956795B395D9F791
:101440003EF490958095709561957F4F8F4F9F4F9B
:101450000895E89409C097FB3EF4909580957095A7
:1014600061957F4F8F4F9F4F9923A9F0F92F96E9F0
:10147000BB279395F695879577956795B795F11165
:10148000F8CFFAF4BB0F11F460FF1BC06F5F7F4F02
:101490008F4F9F4F16C0882311F096E911C0772314
:1014A00021F09EE8872F762F05C0662371F096E81D
:1014B000862F70E060E02AF09A95660F771F881FEC
:1014C000DAF7880F9695879597F90895990F000890
:1014D000550FAA0BE0E8FEEF16161706E807F90706
:1014E000C0F012161306E407F50798F0621B730BA1
:1014F000840B950B39F40A2661F0232B242B252B22
:1015000021F408950A2609F4A140A6958FEF811DC4
:10151000811D089597F99F6780E870E060E0089565
:101520009FEF80EC089500240A94161617061806FB
:101530000906089500240A941216130614060506D7
:101540000895092E0394000C11F4882352F0BB0F68
:1015500040F4BF2B11F460FF04C06F5F7F4F8F4FCB
:101560009F4F089557FD9058440F551F59F05F3F06
:1015700071F04795880F97FB991F61F09F3F79F0B5
:1015800087950895121613061406551FF2CF469537
:10159000F1DF08C0161617061806991FF1CF8695B9
:1015A0007105610508940895E894BB27662777279D
:1015B000CB0197F908950E94660A08F48FEF089509
:1015C0000E94F30A0C94A10A0E94930A38F00E9428
:1015D0009A0A20F0952311F00C948A0A0C94900A30
:1015E00011240C94D50A0E94B20A70F3959FC1F39E
:1015F000950F50E0551F629FF001729FBB27F00DC1
:10160000B11D639FAA27F00DB11DAA1F649F662715
:10161000B00DA11D661F829F2227B00DA11D621F64
:10162000739FB00DA11D621F839FA00D611D221F1E
:10163000749F3327A00D611D231F849F600D211D02
:10164000822F762F6A2F11249F5750409AF0F1F085
:1016500088234AF0EE0FFF1FBB1F661F771F881FEE
:1016600091505040A9F79E3F510580F00C948A0A92
:101670000C94D50A5F3FE4F3983ED4F386957795B2
:101680006795B795F795E7959F5FC1F7FE2B880F94
:10169000911D9695879597F908950E94660A880B83
:1016A000990B089597FB072E16F4009407D077FD49
:1016B00009D00E94880B07FC05D03EF490958195D7
:1016C0009F4F0895709561957F4F0895A1E21A2E5E
:1016D000AA1BBB1BFD010DC0AA1FBB1FEE1FFF1FD6
:1016E000A217B307E407F50720F0A21BB30BE40B26
:1016F000F50B661F771F881F991F1A9469F760956D
:101700007095809590959B01AC01BD01CF01089526
:10171000AA1BBB1B51E107C0AA1FBB1FA617B70717
:1017200010F0A61BB70B881F991F5A95A9F7809533
:101730009095BC01CD010895EE0FFF1F0590F49127
:10174000E02D0994F894FFCF0000000024038402E8
:10175000B1027103E202C002D402000000004005A1
:101760008402920391036E616E00696E66006F766B
:1017700066000D0A0034206368616E6E656C207629
:101780006F6C74696D657465720056313D2000564A
:101790006463313A20005631200056726D73313A3D
:0617A0002000563A200073
:107E0000112484B714BE81FFF0D085E080938100F7
:107E100082E08093C00088E18093C10086E0809377
:107E2000C20080E18093C4008EE0C9D0259A86E02C
:107E300020E33CEF91E0309385002093840096BBD3
:107E4000B09BFECF1D9AA8958150A9F7CC24DD24C4
:107E500088248394B5E0AB2EA1E19A2EF3E0BF2EE7
:107E6000A2D0813461F49FD0082FAFD0023811F036
:107E7000013811F484E001C083E08DD089C08234E0
:107E800011F484E103C0853419F485E0A6D080C0E4
:107E9000853579F488D0E82EFF2485D0082F10E0AE
:107EA000102F00270E291F29000F111F8ED06801E7
:107EB0006FC0863521F484E090D080E0DECF843638
:107EC00009F040C070D06FD0082F6DD080E0C81688
:107ED00080E7D80618F4F601B7BEE895C0E0D1E017
:107EE00062D089930C17E1F7F0E0CF16F0E7DF06D8
:107EF00018F0F601B7BEE89568D007B600FCFDCFD4
:107F0000A601A0E0B1E02C9130E011968C91119780
:107F100090E0982F8827822B932B1296FA010C0160
:107F200087BEE89511244E5F5F4FF1E0A038BF0790
:107F300051F7F601A7BEE89507B600FCFDCF97BE46
:107F4000E89526C08437B1F42ED02DD0F82E2BD052
:107F50003CD0F601EF2C8F010F5F1F4F84911BD097
:107F6000EA94F801C1F70894C11CD11CFA94CF0C13
:107F7000D11C0EC0853739F428D08EE10CD085E9AC
:107F80000AD08FE07ACF813511F488E018D01DD067
:107F900080E101D065CF982F8091C00085FFFCCF94
:107FA0009093C60008958091C00087FFFCCF809118
:107FB000C00084FD01C0A8958091C6000895E0E648
:107FC000F0E098E1908380830895EDDF803219F02E
:107FD00088E0F5DFFFCF84E1DECF1F93182FE3DFCA
:107FE0001150E9F7F2DF1F91089580E0E8DFEE27F6
:047FF000FF270994CA
:027FFE00040479
:00000001FF
