:100000000C9452010C947A010C947A010C947A01AC
:100010000C947A010C947A010C947A010C947A0174
:100020000C947A010C947A010C947A010C947A0164
:100030000C947A010C947A010C947A010C947A0154
:100040000C948F050C947A010C94FF050C94D9053F
:100050000C947A010C947A010C947A010C947A0134
:100060000C947A010C947A01000000000000005FFB
:1000700000000007000700147F147F14242A7F2A41
:10008000122313086462364955225000050300000C
:10009000001C2241000041221C0014083E081408E4
:1000A000083E0808005030000008080808080060F2
:1000B00060000020100804023E5149453E00427F86
:1000C000400042615149462141454B311814127F8D
:1000D0001027454545393C4A494930017109050316
:1000E0003649494936064949291E0036360000007E
:1000F0005636000008142241001414141414004150
:100100002214080201510906324979413E7E11113B
:10011000117E7F494949363E414141227F4141227A
:100120001C7F494949417F090909013E4149497AF2
:100130007F0808087F00417F41002040413F017F48
:10014000081422417F404040407F020C027F7F0420
:1001500008107F3E4141413E7F090909063E415159
:10016000215E7F09192946464949493101017F012C
:10017000013F4040403F1F2040201F3F4038403F4C
:100180006314081463070870080761514945430068
:100190007F41410002040810200041417F00040219
:1001A0000102044040404040000102040020545439
:1001B00054787F48444438384444442038444448C0
:1001C0007F3854545418087E0901020C5252523E92
:1001D0007F0804047800447D40002040443D007FB7
:1001E0001028440000417F40007C041804787C08FB
:1001F00004047838444444387C1414140808141453
:10020000187C7C080404084854545420043F44409B
:10021000203C4040207C1C2040201C3C4030403C86
:1002200044281028440C5050503C4464544C440022
:100230000836410000007F00000041360800100829
:100240000810080000000000000000002400270043
:100250002A0000000000250028002B0000000000FC
:1002600023002600290004040404040404040202F8
:100270000202020203030303030301020408102025
:100280004080010204081020010204081020000030
:100290000008000201000003040700000000000045
:1002A0000000310611241FBECFEFD8E0DEBFCDBF66
:1002B00011E0A0E0B1E0E6EBF5E102C005900D929F
:1002C000A835B107D9F722E0A8E5B1E001C01D9239
:1002D000A635B207E1F711E0C2E5D1E004C02197ED
:1002E000FE010E94D30AC135D107C9F70E947106E9
:1002F0000C94D90A0C940000833081F028F48130EA
:1003000099F08230A9F008958730A9F08830C9F0BB
:100310008430B1F4809180008F7D03C08091800093
:100320008F7780938000089584B58F7784BD08957A
:1003300084B58F7DFBCF8091B0008F778093B00024
:1003400008958091B0008F7DF9CFCF93DF93282F50
:1003500030E0F901E257FD4F8491F901E658FD4F75
:10036000D491F901EA59FD4FC491CC23A1F0811138
:100370000E947C01EC2FF0E0EE0FFF1FE45AFD4FCE
:10038000A591B491EC91ED2381E090E009F480E037
:10039000DF91CF91089580E090E0FACF1F93CF9343
:1003A000DF93282F30E0F901E257FD4F8491F901E6
:1003B000E658FD4FD491F901EA59FD4FC491CC2381
:1003C000A9F0162F81110E947C01EC2FF0E0EE0FB6
:1003D000FF1FEE5AFD4FA591B4918FB7F894EC91A1
:1003E000111108C0D095DE23DC938FBFDF91CF9130
:1003F0001F910895DE2BF8CFCF93DF9390E0FC019F
:10040000E658FD4F24918A599D4FFC018491882321
:10041000D1F090E0880F991FFC01E85BFD4FA5919A
:10042000B491FC01EE5AFD4FC591D49161110EC0FB
:100430009FB7F8948C91E22FE0958E238C932881BE
:10044000E223E8839FBFDF91CF9108958FB7F8949F
:10045000EC91E22BEC938FBFF6CF3FB7F8948091ED
:10046000660190916701A0916801B091690126B57C
:10047000A89B05C02F3F19F00196A11DB11D3FBFDC
:10048000BA2FA92F982F8827BC01CD01620F711DAB
:10049000811D911D42E0660F771F881F991F4A95A5
:1004A000D1F708958F929F92AF92BF92CF92DF9231
:1004B000EF92FF920E942D024B015C0184E6C82E50
:1004C000D12CE12CF12C0E942D02681979098A099E
:1004D0009B09683E734081059105A8F321E0C21A8B
:1004E000D108E108F10888EE880E83E0981EA11C6F
:1004F000B11CC114D104E104F10429F7FF90EF907D
:10050000DF90CF90BF90AF909F908F900895AF9263
:10051000BF92CF92DF92EF92FF920F931F93CF93F0
:10052000DF936C017B018B01040F151FEB015E0152
:10053000AE18BF08C017D10759F06991D601ED91E7
:10054000FC910190F081E02DC6010995892B79F786
:10055000C501DF91CF911F910F91FF90EF90DF9038
:10056000CF90BF90AF900895FC01538D448D252FFF
:1005700030E0842F90E0821B930B541710F0CF963D
:10058000089501970895FC01918D828D981761F06F
:10059000A28DAE0FBF2FB11D5D968C91928D9F5F86
:1005A0009F73928F90E008958FEF9FEF0895FC0165
:1005B000918D828D981731F0828DE80FF11D858D18
:1005C00090E008958FEF9FEF0895FC01918D228DAB
:1005D000892F90E0805C9F4F821B91098F73992730
:1005E00008958AE691E00E94E50221E0892B09F452
:1005F00020E0822F089580E090E0892B29F00E946E
:10060000F10281110C9400000895FC01A48DA80F43
:10061000B92FB11DA35ABF4F2C91848D90E0019644
:100620008F739927848FA689B7892C93A089B18964
:100630008C91837080648C93938D848D981306C005
:100640000288F389E02D80818F7D80830895EF9269
:10065000FF920F931F93CF93DF93EC0181E0888F7C
:100660009B8D8C8D98131AC0E889F989808185FF4C
:1006700015C09FB7F894EE89FF896083E889F989EE
:1006800080818370806480839FBF81E090E0DF91F0
:10069000CF911F910F91FF90EF900895F62E0B8D43
:1006A00010E00F5F1F4F0F731127E02E8C8D8E11FE
:1006B0000CC00FB607FCFACFE889F989808185FF65
:1006C000F5CFCE010E940503F1CFEB8DEC0FFD2F8E
:1006D000F11DE35AFF4FF0829FB7F8940B8FEA8920
:1006E000FB8980818062CFCFCF93DF93EC01888D2F
:1006F0008823B9F0AA89BB89E889F9898C9185FD9D
:1007000003C0808186FD0DC00FB607FCF7CF8C912A
:1007100085FFF2CF808185FFEDCFCE010E940503DA
:10072000E9CFDF91CF910895089590E080E008959A
:10073000FC0101900020E9F73197AF01481B590BEC
:10074000BC0187E092E00C9487028F929F92AF9257
:10075000BF920F931F93CF93DF93CDB7DEB7A197CF
:100760000FB6F894DEBF0FBECDBF19A2423008F419
:100770004AE08E010F5D1F4F842E912CB12CA12CCD
:10078000A50194010E949D0AE62FB901CA01EA3031
:10079000F4F4E05DD801EE938D01232B242B252B5F
:1007A00079F790E080E0109719F0CD010E9498034E
:1007B000A1960FB6F894DEBF0FBECDBFDF91CF91EB
:1007C0001F910F91BF90AF909F908F900895E95C1B
:1007D000E1CFEF92FF920F931F93CF93DF93EC0142
:1007E000042F8E810E94CE0160E088850E94CE0198
:1007F000FC80ED8018E0602F661F6627661F8E2D37
:100800000E94CE01000F61E08F2D0E94CE0160E0BA
:100810008F2D0E94CE01115071F761E08885DF9124
:10082000CF911F910F91FF90EF900C94CE01CF9339
:10083000DF93C7E0D2E01C8690E06B8529E3629FDE
:10084000612D1124669570E06F5F7F4F0E94890AC9
:100850008D8740E860E0CE010E94E9034D85406449
:1008600060E0CE01DF91CF910C94E903CF92DF924B
:10087000EF92FF920F931F93CF93DF9300D000D09E
:100880001F92CDB7DEB767FD6BC07C01862F90E06D
:10089000603208F455C0809725E0289FB001299F59
:1008A000700D112468597F4F45E050E0CE0101964C
:1008B0000E9444088E010F5F1F4F680185E0C80E3B
:1008C000D11CF80141918F01F70186858111409576
:1008D00061E0C7010E94E9030C151D0591F7F701BE
:1008E0004685419561E0C7010E94E903F7018485CF
:1008F00090E00696628570E00E94890A8487892BC1
:1009000079F4858590E00196638529E3629F612DE6
:100910001124669570E06F5F7F4F0E94890A85877A
:1009200081E090E00F900F900F900F900F90DF916B
:10093000CF911F910F91FF90EF90DF90CF9008958E
:10094000880F991FF701E80FF91F07851089011516
:10095000110509F0B2CF45E050E068E670E0A6CF9F
:1009600090E080E0DFCF4F925F926F927F928F9204
:100970009F92AF92BF92CF92DF92EF92FF920F932E
:100980001F93CF936B017C01742EAC019B010E94DD
:10099000840A882399F08EE191E0CF911F910F9105
:1009A000FF90EF90DF90CF90BF90AF909F908F908F
:1009B0007F906F905F904F900C9498034601570181
:1009C000E894B7F82FEF3FEF4FE75FE7C501B401B9
:1009D0000E94840A81110DC02FEF3FEF4FE75FE7C0
:1009E000C501B4010E94BA0818161CF482E291E015
:1009F000D4CF2FEF3FEF4FE75FE4C701B6010E946E
:100A0000120A18161CF486E291E0C7CF2FEF3FEFD1
:100A10004FE75FECC701B6010E94BA0887FDF3CF2C
:100A200020E030E0A901C701B6010E94BA0810E039
:100A300000E087FF0AC06DE287E092E00E94360482
:100A40008C01F7FAF094F7F8F094C0E060E070E001
:100A500080E09FE37C1641F020E030E040E251E48A
:100A60000E94BF08CF5FF6CFA70196010E944E08F3
:100A70002B013C010E9431094B015C014AE00E94BC
:100A8000A5037C01E00EF11ECC23C1F1C501B40128
:100A90000E9460099B01AC01C301B2010E944D0894
:100AA0004B015C016EE287E092E00E943604E80EA2
:100AB000F91EC15018F120E030E040E251E4C501D8
:100AC000B4010E94170A2B013C010E9431094B011D
:100AD000B12CA12C4AE0C501B4010E94A503E80E87
:100AE000F91EC501B4010E9460099B01AC01C3015C
:100AF000B2010E944D084B015C01DBCFC701CF91D1
:100B00001F910F91FF90EF90DF90CF90BF90AF902B
:100B10009F908F907F906F905F904F9008951F925D
:100B20000F920FB60F9211242F933F938F939F93A1
:100B3000AF93BF938091620190916301A091640192
:100B4000B09165013091610123E0230F2D3758F5F5
:100B50000196A11DB11D20936101809362019093C4
:100B60006301A0936401B093650180916601909147
:100B70006701A0916801B09169010196A11DB11DA5
:100B80008093660190936701A0936801B093690117
:100B9000BF91AF919F918F913F912F910F900FBE79
:100BA0000F901F90189526E8230F0296A11DB11DE6
:100BB000D2CF1F920F920FB60F9211242F933F9313
:100BC0004F935F936F937F938F939F93AF93BF9355
:100BD000EF93FF938AE691E00E940503FF91EF9166
:100BE000BF91AF919F918F917F916F915F914F9145
:100BF0003F912F910F900FBE0F901F9018951F924D
:100C00000F920FB60F9211242F938F939F93EF9310
:100C1000FF93E0917A01F0917B018081E091800166
:100C2000F091810182FD1BC09081809183018F5FD3
:100C30008F7320918401821741F0E0918301F0E0ED
:100C4000E659FE4F958F80938301FF91EF919F911D
:100C50008F912F910F900FBE0F901F90189580814C
:100C6000F4CFEAE6F1E01382128288EE93E0A0E08E
:100C7000B0E084839583A683B78384E091E0918379
:100C8000808385EC90E09587848784EC90E097875B
:100C9000868780EC90E0918B808B81EC90E0938B49
:100CA000828B82EC90E0958B848B86EC90E0978B26
:100CB000868B118E128E138E148EE7E0F2E0138273
:100CC000128286E191E09183808383E0848384E0D3
:100CD000858385E0868386E0878387E08087168624
:100CE0000895789484B5826084BD84B5816084BDA4
:100CF00085B5826085BD85B5816085BD80916E00BA
:100D0000816080936E0010928100809181008260EA
:100D10008093810080918100816080938100809127
:100D200080008160809380008091B1008460809316
:100D3000B1008091B00081608093B00080917A0012
:100D4000846080937A0080917A00826080937A0038
:100D500080917A00816080937A0080917A00806827
:100D600080937A001092C100E0917A01F0917B01AA
:100D700082E08083E0917601F09177011082E0912A
:100D80007801F09179018FEC808310928201E091DB
:100D90007E01F0917F0186E08083E0917C01F091FB
:100DA0007D01808180618083E0917C01F0917D01F3
:100DB000808188608083E0917C01F0917D01808159
:100DC00080688083E0917C01F0917D0180818F7D3E
:100DD000808360E080E00E94FC0160E082E00E948D
:100DE000FC0160E08DE00E94FC0184E5809311022B
:100DF00080E380931202109210021092130210925C
:100E00001402E6E1F2E080E4DF011D928A95E9F741
:100E100061E080910B020E94FC0161E080910C0274
:100E20000E94FC0161E080910D020E94FC0161E0E2
:100E300080910E020E94FC0161E080910F020E94ED
:100E4000FC0161E080910E020E94CE0161E0809180
:100E50000F020E94CE0160E080910E020E94CE013E
:100E60000E94520261E080910E020E94CE0141E296
:100E700060E087E092E00E94E90343E160E087E000
:100E800092E00E94E9038091100242EC813039F433
:100E900040EE60E087E092E00E94E90345E060E018
:100EA00087E092E00E94E90340E260E087E092E0A0
:100EB0000E94E90349E060E087E092E00E94E903D4
:100EC00080E00E941704D0E0C0E080911202869575
:100ED0008695869590911102899FC0011124C817AB
:100EE000D90740F440E061E087E092E00E94E90326
:100EF0002196EBCF80E00E94170448E060E087E095
:100F000092E00E94E9034CE060E087E092E00E94FA
:100F1000E9030E94520240E860E087E092E00E940C
:100F2000E90340E460E087E092E00E94E9038AE29E
:100F300091E00E94980361E088E00E94FC0180E457
:100F4000B82EC0E0D0E082E00E94A501809360014D
:100F50008DE00E94A5018C01B0927C0080917A0006
:100F6000806480937A0080917A0086FDFCCF609146
:100F7000780070917900072E000C880B990B0E9465
:100F8000620929EC36E740EA50E40E94170A20E0A3
:100F900030E040E85AE30E94170A25E535E545E5CB
:100FA0005FE30E94BF086B017C01C0925C01D0929C
:100FB0005D01E0925E01F0925F01012BA9F5809145
:100FC0006001811123C082E00E94170488E391E050
:100FD0000E94980320E030E040EA50E460915C0118
:100FE00070915D0180915E0190915F010E94170AEE
:100FF00042E00E94B304209709F4A5CF0E94F102B9
:10100000882309F4A0CF0E9400009DCF813099F77A
:1010100082E00E94170483E491E00E94980320E09C
:1010200030E040EA50ECDACF20915801309159017C
:1010300040915A0150915B010E94120A1816DCF689
:10104000C0925801D0925901E0925A01F0925B018E
:1010500082E00E9417048EE491E00E94980320E051
:1010600030E040EA50E4609158017091590180915C
:101070005A0190915B010E94170A23EF34E045EB7F
:101080005FE30E94BF08B4CFFB01DC0102C0059002
:101090000D9241505040D8F708955058BB27AA27C9
:1010A0000E9465080C94D8090E94CA0938F00E9471
:1010B000D10920F039F49F3F19F426F40C94C709A4
:1010C0000EF4E095E7FB0C94C109E92F0E94E909B1
:1010D00058F3BA17620773078407950720F079F46D
:1010E000A6F50C940B0A0EF4E0950B2EBA2FA02D4A
:1010F0000B01B90190010C01CA01A0011124FF27C5
:10110000591B99F0593F50F4503E68F11A16F040BF
:10111000A22F232F342F4427585FF3CF46953795BE
:101120002795A795F0405395C9F77EF41F16BA0B83
:10113000620B730B840BBAF09150A1F0FF0FBB1F31
:10114000661F771F881FC2F70EC0BA0F621F731F7A
:10115000841F48F4879577956795B795F7959E3FD7
:1011600008F0B0CF9395880F08F09927EE0F979568
:10117000879508950E949D0908F481E008950E94D2
:10118000D3080C94D8090E94D10958F00E94CA09CA
:1011900040F029F45F3F29F00C94C10951110C94DF
:1011A0000C0A0C94C7090E94E90968F39923B1F36A
:1011B000552391F3951B550BBB27AA27621773077D
:1011C000840738F09F5F5F4F220F331F441FAA1F11
:1011D000A9F335D00E2E3AF0E0E832D091505040CD
:1011E000E695001CCAF72BD0FE2F29D0660F771F7B
:1011F000881FBB1F261737074807AB07B0E809F061
:10120000BB0B802DBF01FF2793585F4F3AF09E3FE5
:10121000510578F00C94C1090C940C0A5F3FE4F37B
:10122000983ED4F3869577956795B795F7959F5F28
:10123000C9F7880F911D9695879597F90895E1E074
:10124000660F771F881FBB1F621773078407BA07D3
:1012500020F0621B730B840BBA0BEE1F88F7E0952E
:1012600008950E94F10988F09F5798F0B92F9927A7
:10127000B751B0F0E1F0660F771F881F991F1AF081
:10128000BA95C9F714C0B13091F00E940B0AB1E0D1
:1012900008950C940B0A672F782F8827B85F39F0D0
:1012A000B93FCCF3869577956795B395D9F73EF41A
:1012B00090958095709561957F4F8F4F9F4F0895C2
:1012C000E89409C097FB3EF49095809570956195E0
:1012D0007F4F8F4F9F4F9923A9F0F92F96E9BB2796
:1012E0009395F695879577956795B795F111F8CF12
:1012F000FAF4BB0F11F460FF1BC06F5F7F4F8F4F7D
:101300009F4F16C0882311F096E911C0772321F072
:101310009EE8872F762F05C0662371F096E8862F0A
:1013200070E060E02AF09A95660F771F881FDAF761
:10133000880F9695879597F90895990F0008550F8E
:10134000AA0BE0E8FEEF16161706E807F907C0F04B
:1013500012161306E407F50798F0621B730B840B53
:10136000950B39F40A2661F0232B242B252B21F42D
:1013700008950A2609F4A140A6958FEF811D811DCD
:10138000089597F99F6780E870E060E008959FEF07
:1013900080EC089500240A9416161706180609060C
:1013A000089500240A9412161306140605060895DB
:1013B000092E0394000C11F4882352F0BB0F40F463
:1013C000BF2B11F460FF04C06F5F7F4F8F4F9F4FA3
:1013D000089557FD9058440F551F59F05F3F71F025
:1013E0004795880F97FB991F61F09F3F79F087958C
:1013F0000895121613061406551FF2CF4695F1DF15
:1014000008C0161617061806991FF1CF86957105A4
:10141000610508940895E894BB2766277727CB01D8
:1014200097F908950E949D0908F48FEF08950E948E
:101430002A0A0C94D8090E94CA0938F00E94D109DE
:1014400020F0952311F00C94C1090C94C7091124C4
:101450000C940C0A0E94E90970F3959FC1F3950F53
:1014600050E0551F629FF001729FBB27F00DB11D28
:10147000639FAA27F00DB11DAA1F649F6627B00DB8
:10148000A11D661F829F2227B00DA11D621F739FA1
:10149000B00DA11D621F839FA00D611D221F749FAF
:1014A0003327A00D611D231F849F600D211D822FF6
:1014B000762F6A2F11249F5750409AF0F1F088231D
:1014C0004AF0EE0FFF1FBB1F661F771F881F91504A
:1014D0005040A9F79E3F510580F00C94C1090C942F
:1014E0000C0A5F3FE4F3983ED4F3869577956795B1
:1014F000B795F795E7959F5FC1F7FE2B880F911D74
:101500009695879597F908950E949D09880B990BE8
:10151000089597FB072E16F4009407D077FD09D0A5
:101520000E94BF0A07FC05D03EF4909581959F4F1D
:101530000895709561957F4F0895A1E21A2EAA1B18
:10154000BB1BFD010DC0AA1FBB1FEE1FFF1FA21773
:10155000B307E407F50720F0A21BB30BE40BF50B70
:10156000661F771F881F991F1A9469F760957095F9
:10157000809590959B01AC01BD01CF010895AA1BF8
:10158000BB1B51E107C0AA1FBB1FA617B70710F06E
:10159000A61BB70B881F991F5A95A9F780959095A0
:1015A000BC01CD010895EE0FFF1F0590F491E02DD1
:0615B0000994F894FFCF3E
:1015B6000000000027038702B4027403E502C30299
:1015C600D7020000000036048702950394036E617B
:1015D6006E00696E66006F766600444320564F4C77
:1015E60054494D4554524F00494E5055542056319A
:1015F6003D2000494E5055542056323D2000524D54
:08160600532056313D20000085
:00000001FF
